{
  "_format": "hh-sol-artifact-1",
  "contractName": "HospitalRecords",
  "sourceName": "contracts/HospitalRecords.sol",
  "abi": [
    {
      "inputs": [],
      "stateMutability": "nonpayable",
      "type": "constructor"
    },
    {
      "anonymous": false,
      "inputs": [
        {
          "indexed": true,
          "internalType": "address",
          "name": "patient",
          "type": "address"
        },
        {
          "indexed": false,
          "internalType": "string",
          "name": "name",
          "type": "string"
        },
        {
          "indexed": true,
          "internalType": "address",
          "name": "doctor",
          "type": "address"
        }
      ],
      "name": "PatientRegistered",
      "type": "event"
    },
    {
      "anonymous": false,
      "inputs": [
        {
          "indexed": true,
          "internalType": "address",
          "name": "patient",
          "type": "address"
        },
        {
          "indexed": false,
          "internalType": "string",
          "name": "name",
          "type": "string"
        }
      ],
      "name": "PatientSelfRegistered",
      "type": "event"
    },
    {
      "anonymous": false,
      "inputs": [
        {
          "indexed": true,
          "internalType": "uint32",
          "name": "recordId",
          "type": "uint32"
        },
        {
          "indexed": false,
          "internalType": "string",
          "name": "ipfsHash",
          "type": "string"
        },
        {
          "indexed": false,
          "internalType": "uint256",
          "name": "timestamp",
          "type": "uint256"
        }
      ],
      "name": "PrescriptionAdded",
      "type": "event"
    },
    {
      "anonymous": false,
      "inputs": [
        {
          "indexed": true,
          "internalType": "address",
          "name": "patient",
          "type": "address"
        },
        {
          "indexed": true,
          "internalType": "address",
          "name": "fromDoctor",
          "type": "address"
        },
        {
          "indexed": true,
          "internalType": "address",
          "name": "toDoctor",
          "type": "address"
        },
        {
          "indexed": false,
          "internalType": "uint32",
          "name": "recordId",
          "type": "uint32"
        }
      ],
      "name": "ReferralCreated",
      "type": "event"
    },
    {
      "anonymous": false,
      "inputs": [
        {
          "indexed": true,
          "internalType": "address",
          "name": "user",
          "type": "address"
        },
        {
          "indexed": false,
          "internalType": "enum HospitalRecords.Role",
          "name": "role",
          "type": "uint8"
        }
      ],
      "name": "StaffAdded",
      "type": "event"
    },
    {
      "anonymous": false,
      "inputs": [
        {
          "indexed": true,
          "internalType": "address",
          "name": "user",
          "type": "address"
        },
        {
          "indexed": false,
          "internalType": "enum HospitalRecords.Role",
          "name": "role",
          "type": "uint8"
        }
      ],
      "name": "StaffRemoved",
      "type": "event"
    },
    {
      "anonymous": false,
      "inputs": [
        {
          "indexed": true,
          "internalType": "address",
          "name": "user",
          "type": "address"
        },
        {
          "indexed": false,
          "internalType": "enum HospitalRecords.Role",
          "name": "role",
          "type": "uint8"
        }
      ],
      "name": "StaffUpdated",
      "type": "event"
    },
    {
      "anonymous": false,
      "inputs": [
        {
          "indexed": true,
          "internalType": "uint32",
          "name": "recordId",
          "type": "uint32"
        },
        {
          "indexed": false,
          "internalType": "string",
          "name": "vitals",
          "type": "string"
        }
      ],
      "name": "VitalsUpdated",
      "type": "event"
    },
    {
      "inputs": [
        {
          "internalType": "address",
          "name": "user",
          "type": "address"
        }
      ],
      "name": "addAdmin",
      "outputs": [],
      "stateMutability": "nonpayable",
      "type": "function"
    },
    {
      "inputs": [
        {
          "internalType": "address",
          "name": "user",
          "type": "address"
        },
        {
          "internalType": "string",
          "name": "name",
          "type": "string"
        },
        {
          "internalType": "string",
          "name": "id",
          "type": "string"
        },
        {
          "internalType": "string",
          "name": "department",
          "type": "string"
        }
      ],
      "name": "addDoctor",
      "outputs": [],
      "stateMutability": "nonpayable",
      "type": "function"
    },
    {
      "inputs": [
        {
          "internalType": "address",
          "name": "user",
          "type": "address"
        },
        {
          "internalType": "string",
          "name": "name",
          "type": "string"
        },
        {
          "internalType": "string",
          "name": "id",
          "type": "string"
        }
      ],
      "name": "addNurse",
      "outputs": [],
      "stateMutability": "nonpayable",
      "type": "function"
    },
    {
      "inputs": [
        {
          "internalType": "uint32",
          "name": "recordId",
          "type": "uint32"
        },
        {
          "internalType": "string",
          "name": "prescription",
          "type": "string"
        },
        {
          "internalType": "string",
          "name": "notes",
          "type": "string"
        },
        {
          "internalType": "string",
          "name": "ipfsHash",
          "type": "string"
        }
      ],
      "name": "addPrescription",
      "outputs": [],
      "stateMutability": "nonpayable",
      "type": "function"
    },
    {
      "inputs": [
        {
          "internalType": "address",
          "name": "user",
          "type": "address"
        },
        {
          "internalType": "string",
          "name": "name",
          "type": "string"
        },
        {
          "internalType": "string",
          "name": "id",
          "type": "string"
        }
      ],
      "name": "addReceptionist",
      "outputs": [],
      "stateMutability": "nonpayable",
      "type": "function"
    },
    {
      "inputs": [
        {
          "internalType": "uint256",
          "name": "",
          "type": "uint256"
        }
      ],
      "name": "admins",
      "outputs": [
        {
          "internalType": "address",
          "name": "",
          "type": "address"
        }
      ],
      "stateMutability": "view",
      "type": "function"
    },
    {
      "inputs": [
        {
          "internalType": "uint256",
          "name": "",
          "type": "uint256"
        }
      ],
      "name": "allRecordIds",
      "outputs": [
        {
          "internalType": "uint32",
          "name": "",
          "type": "uint32"
        }
      ],
      "stateMutability": "view",
      "type": "function"
    },
    {
      "inputs": [
        {
          "internalType": "address",
          "name": "patient",
          "type": "address"
        },
        {
          "internalType": "string",
          "name": "ipfsHash",
          "type": "string"
        },
        {
          "internalType": "string",
          "name": "prescription",
          "type": "string"
        },
        {
          "internalType": "string",
          "name": "notes",
          "type": "string"
        }
      ],
      "name": "createMedicalRecord",
      "outputs": [],
      "stateMutability": "nonpayable",
      "type": "function"
    },
    {
      "inputs": [
        {
          "internalType": "address",
          "name": "",
          "type": "address"
        }
      ],
      "name": "doctorDetails",
      "outputs": [
        {
          "internalType": "string",
          "name": "name",
          "type": "string"
        },
        {
          "internalType": "string",
          "name": "id",
          "type": "string"
        },
        {
          "internalType": "string",
          "name": "department",
          "type": "string"
        }
      ],
      "stateMutability": "view",
      "type": "function"
    },
    {
      "inputs": [
        {
          "internalType": "uint256",
          "name": "",
          "type": "uint256"
        }
      ],
      "name": "doctors",
      "outputs": [
        {
          "internalType": "address",
          "name": "",
          "type": "address"
        }
      ],
      "stateMutability": "view",
      "type": "function"
    },
    {
      "inputs": [
        {
          "internalType": "address",
          "name": "user",
          "type": "address"
        }
      ],
      "name": "getDoctorDetails",
      "outputs": [
        {
          "internalType": "string",
          "name": "",
          "type": "string"
        },
        {
          "internalType": "string",
          "name": "",
          "type": "string"
        },
        {
          "internalType": "string",
          "name": "",
          "type": "string"
        }
      ],
      "stateMutability": "view",
      "type": "function"
    },
    {
      "inputs": [
        {
          "internalType": "address",
          "name": "user",
          "type": "address"
        }
      ],
      "name": "getNurseDetails",
      "outputs": [
        {
          "internalType": "string",
          "name": "",
          "type": "string"
        },
        {
          "internalType": "string",
          "name": "",
          "type": "string"
        }
      ],
      "stateMutability": "view",
      "type": "function"
    },
    {
      "inputs": [
        {
          "internalType": "address",
          "name": "user",
          "type": "address"
        }
      ],
      "name": "getReceptionistDetails",
      "outputs": [
        {
          "internalType": "string",
          "name": "",
          "type": "string"
        },
        {
          "internalType": "string",
          "name": "",
          "type": "string"
        }
      ],
      "stateMutability": "view",
      "type": "function"
    },
    {
      "inputs": [
        {
          "internalType": "address",
          "name": "",
          "type": "address"
        }
      ],
      "name": "nurseDetails",
      "outputs": [
        {
          "internalType": "string",
          "name": "name",
          "type": "string"
        },
        {
          "internalType": "string",
          "name": "id",
          "type": "string"
        }
      ],
      "stateMutability": "view",
      "type": "function"
    },
    {
      "inputs": [
        {
          "internalType": "uint256",
          "name": "",
          "type": "uint256"
        }
      ],
      "name": "nurses",
      "outputs": [
        {
          "internalType": "address",
          "name": "",
          "type": "address"
        }
      ],
      "stateMutability": "view",
      "type": "function"
    },
    {
      "inputs": [
        {
          "internalType": "address",
          "name": "",
          "type": "address"
        }
      ],
      "name": "patientDetails",
      "outputs": [
        {
          "internalType": "string",
          "name": "name",
          "type": "string"
        },
        {
          "internalType": "string",
          "name": "id",
          "type": "string"
        },
        {
          "internalType": "uint256",
          "name": "age",
          "type": "uint256"
        },
        {
          "internalType": "string",
          "name": "gender",
          "type": "string"
        },
        {
          "internalType": "string",
          "name": "contact",
          "type": "string"
        }
      ],
      "stateMutability": "view",
      "type": "function"
    },
    {
      "inputs": [
        {
          "internalType": "address",
          "name": "",
          "type": "address"
        },
        {
          "internalType": "uint256",
          "name": "",
          "type": "uint256"
        }
      ],
      "name": "patientRecordIds",
      "outputs": [
        {
          "internalType": "uint32",
          "name": "",
          "type": "uint32"
        }
      ],
      "stateMutability": "view",
      "type": "function"
    },
    {
      "inputs": [
        {
          "internalType": "uint256",
          "name": "",
          "type": "uint256"
        }
      ],
      "name": "patients",
      "outputs": [
        {
          "internalType": "address",
          "name": "",
          "type": "address"
        }
      ],
      "stateMutability": "view",
      "type": "function"
    },
    {
      "inputs": [
        {
          "internalType": "address",
          "name": "",
          "type": "address"
        }
      ],
      "name": "receptionistDetails",
      "outputs": [
        {
          "internalType": "string",
          "name": "name",
          "type": "string"
        },
        {
          "internalType": "string",
          "name": "id",
          "type": "string"
        }
      ],
      "stateMutability": "view",
      "type": "function"
    },
    {
      "inputs": [
        {
          "internalType": "uint256",
          "name": "",
          "type": "uint256"
        }
      ],
      "name": "receptionists",
      "outputs": [
        {
          "internalType": "address",
          "name": "",
          "type": "address"
        }
      ],
      "stateMutability": "view",
      "type": "function"
    },
    {
      "inputs": [],
      "name": "recordCount",
      "outputs": [
        {
          "internalType": "uint32",
          "name": "",
          "type": "uint32"
        }
      ],
      "stateMutability": "view",
      "type": "function"
    },
    {
      "inputs": [
        {
          "internalType": "uint32",
          "name": "",
          "type": "uint32"
        }
      ],
      "name": "records",
      "outputs": [
        {
          "internalType": "uint32",
          "name": "id",
          "type": "uint32"
        },
        {
          "internalType": "address",
          "name": "patient",
          "type": "address"
        },
        {
          "internalType": "address",
          "name": "doctor",
          "type": "address"
        },
        {
          "internalType": "string",
          "name": "ipfsHash",
          "type": "string"
        },
        {
          "internalType": "string",
          "name": "prescription",
          "type": "string"
        },
        {
          "internalType": "string",
          "name": "notes",
          "type": "string"
        },
        {
          "internalType": "string",
          "name": "vitals",
          "type": "string"
        },
        {
          "internalType": "uint256",
          "name": "createdAt",
          "type": "uint256"
        },
        {
          "internalType": "uint256",
          "name": "lastUpdated",
          "type": "uint256"
        }
      ],
      "stateMutability": "view",
      "type": "function"
    },
    {
      "inputs": [
        {
          "internalType": "uint32",
          "name": "recordId",
          "type": "uint32"
        },
        {
          "internalType": "address",
          "name": "toDoctor",
          "type": "address"
        }
      ],
      "name": "referAnotherDoctor",
      "outputs": [],
      "stateMutability": "nonpayable",
      "type": "function"
    },
    {
      "inputs": [
        {
          "internalType": "address",
          "name": "patient",
          "type": "address"
        },
        {
          "internalType": "address",
          "name": "toDoctor",
          "type": "address"
        }
      ],
      "name": "referPatient",
      "outputs": [],
      "stateMutability": "nonpayable",
      "type": "function"
    },
    {
      "inputs": [
        {
          "internalType": "address",
          "name": "",
          "type": "address"
        },
        {
          "internalType": "uint256",
          "name": "",
          "type": "uint256"
        }
      ],
      "name": "referrals",
      "outputs": [
        {
          "internalType": "address",
          "name": "fromDoctor",
          "type": "address"
        },
        {
          "internalType": "address",
          "name": "toDoctor",
          "type": "address"
        },
        {
          "internalType": "uint32",
          "name": "recordId",
          "type": "uint32"
        },
        {
          "internalType": "enum HospitalRecords.ReferralStatus",
          "name": "status",
          "type": "uint8"
        }
      ],
      "stateMutability": "view",
      "type": "function"
    },
    {
      "inputs": [
        {
          "internalType": "address",
          "name": "patient",
          "type": "address"
        },
        {
          "internalType": "string",
          "name": "name",
          "type": "string"
        },
        {
          "internalType": "string",
          "name": "id",
          "type": "string"
        },
        {
          "internalType": "uint256",
          "name": "age",
          "type": "uint256"
        },
        {
          "internalType": "string",
          "name": "gender",
          "type": "string"
        },
        {
          "internalType": "string",
          "name": "contact",
          "type": "string"
        },
        {
          "internalType": "address",
          "name": "preferredDoctor",
          "type": "address"
        }
      ],
      "name": "registerPatient",
      "outputs": [],
      "stateMutability": "nonpayable",
      "type": "function"
    },
    {
      "inputs": [
        {
          "internalType": "address",
          "name": "user",
          "type": "address"
        }
      ],
      "name": "removeDoctor",
      "outputs": [],
      "stateMutability": "nonpayable",
      "type": "function"
    },
    {
      "inputs": [
        {
          "internalType": "address",
          "name": "user",
          "type": "address"
        }
      ],
      "name": "removeNurse",
      "outputs": [],
      "stateMutability": "nonpayable",
      "type": "function"
    },
    {
      "inputs": [
        {
          "internalType": "address",
          "name": "user",
          "type": "address"
        }
      ],
      "name": "removeReceptionist",
      "outputs": [],
      "stateMutability": "nonpayable",
      "type": "function"
    },
    {
      "inputs": [
        {
          "internalType": "uint256",
          "name": "index",
          "type": "uint256"
        },
        {
          "internalType": "bool",
          "name": "accept",
          "type": "bool"
        },
        {
          "internalType": "address",
          "name": "newDoctorIfReject",
          "type": "address"
        }
      ],
      "name": "respondToReferral",
      "outputs": [],
      "stateMutability": "nonpayable",
      "type": "function"
    },
    {
      "inputs": [
        {
          "internalType": "address",
          "name": "",
          "type": "address"
        }
      ],
      "name": "roles",
      "outputs": [
        {
          "internalType": "enum HospitalRecords.Role",
          "name": "",
          "type": "uint8"
        }
      ],
      "stateMutability": "view",
      "type": "function"
    },
    {
      "inputs": [
        {
          "internalType": "address",
          "name": "patient",
          "type": "address"
        }
      ],
      "name": "searchPatient",
      "outputs": [
        {
          "internalType": "string",
          "name": "",
          "type": "string"
        },
        {
          "internalType": "string",
          "name": "",
          "type": "string"
        },
        {
          "internalType": "uint256",
          "name": "",
          "type": "uint256"
        },
        {
          "internalType": "string",
          "name": "",
          "type": "string"
        },
        {
          "internalType": "string",
          "name": "",
          "type": "string"
        },
        {
          "internalType": "uint32[]",
          "name": "",
          "type": "uint32[]"
        }
      ],
      "stateMutability": "view",
      "type": "function"
    },
    {
      "inputs": [
        {
          "internalType": "string",
          "name": "name",
          "type": "string"
        }
      ],
      "name": "selfRegister",
      "outputs": [],
      "stateMutability": "nonpayable",
      "type": "function"
    },
    {
      "inputs": [
        {
          "internalType": "address",
          "name": "user",
          "type": "address"
        },
        {
          "internalType": "string",
          "name": "name",
          "type": "string"
        },
        {
          "internalType": "string",
          "name": "id",
          "type": "string"
        },
        {
          "internalType": "string",
          "name": "department",
          "type": "string"
        }
      ],
      "name": "updateDoctor",
      "outputs": [],
      "stateMutability": "nonpayable",
      "type": "function"
    },
    {
      "inputs": [
        {
          "internalType": "address",
          "name": "user",
          "type": "address"
        },
        {
          "internalType": "string",
          "name": "name",
          "type": "string"
        },
        {
          "internalType": "string",
          "name": "id",
          "type": "string"
        }
      ],
      "name": "updateNurse",
      "outputs": [],
      "stateMutability": "nonpayable",
      "type": "function"
    },
    {
      "inputs": [
        {
          "internalType": "address",
          "name": "patient",
          "type": "address"
        },
        {
          "internalType": "string",
          "name": "name",
          "type": "string"
        },
        {
          "internalType": "string",
          "name": "id",
          "type": "string"
        },
        {
          "internalType": "uint256",
          "name": "age",
          "type": "uint256"
        },
        {
          "internalType": "string",
          "name": "gender",
          "type": "string"
        },
        {
          "internalType": "string",
          "name": "contact",
          "type": "string"
        }
      ],
      "name": "updatePatientDetails",
      "outputs": [],
      "stateMutability": "nonpayable",
      "type": "function"
    },
    {
      "inputs": [
        {
          "internalType": "address",
          "name": "user",
          "type": "address"
        },
        {
          "internalType": "string",
          "name": "name",
          "type": "string"
        },
        {
          "internalType": "string",
          "name": "id",
          "type": "string"
        }
      ],
      "name": "updateReceptionist",
      "outputs": [],
      "stateMutability": "nonpayable",
      "type": "function"
    },
    {
      "inputs": [
        {
          "internalType": "uint32",
          "name": "recordId",
          "type": "uint32"
        },
        {
          "internalType": "string",
          "name": "vitals",
          "type": "string"
        },
        {
          "internalType": "string",
          "name": "notes",
          "type": "string"
        }
      ],
      "name": "updateVitals",
      "outputs": [],
      "stateMutability": "nonpayable",
      "type": "function"
    },
    {
      "inputs": [],
      "name": "viewAllDoctors",
      "outputs": [
        {
          "internalType": "address[]",
          "name": "",
          "type": "address[]"
        }
      ],
      "stateMutability": "view",
      "type": "function"
    },
    {
      "inputs": [],
      "name": "viewAllPatients",
      "outputs": [
        {
          "internalType": "address[]",
          "name": "",
          "type": "address[]"
        }
      ],
      "stateMutability": "view",
      "type": "function"
    },
    {
      "inputs": [],
      "name": "viewAllRecords",
      "outputs": [
        {
          "components": [
            {
              "internalType": "uint32",
              "name": "id",
              "type": "uint32"
            },
            {
              "internalType": "address",
              "name": "patient",
              "type": "address"
            },
            {
              "internalType": "address",
              "name": "doctor",
              "type": "address"
            },
            {
              "internalType": "string",
              "name": "ipfsHash",
              "type": "string"
            },
            {
              "internalType": "string",
              "name": "prescription",
              "type": "string"
            },
            {
              "internalType": "string",
              "name": "notes",
              "type": "string"
            },
            {
              "internalType": "string",
              "name": "vitals",
              "type": "string"
            },
            {
              "internalType": "uint256",
              "name": "createdAt",
              "type": "uint256"
            },
            {
              "internalType": "uint256",
              "name": "lastUpdated",
              "type": "uint256"
            }
          ],
          "internalType": "struct HospitalRecords.Record[]",
          "name": "",
          "type": "tuple[]"
        }
      ],
      "stateMutability": "view",
      "type": "function"
    },
    {
      "inputs": [],
      "name": "viewAllStaff",
      "outputs": [
        {
          "internalType": "address[]",
          "name": "",
          "type": "address[]"
        },
        {
          "internalType": "address[]",
          "name": "",
          "type": "address[]"
        },
        {
          "internalType": "address[]",
          "name": "",
          "type": "address[]"
        },
        {
          "internalType": "address[]",
          "name": "",
          "type": "address[]"
        }
      ],
      "stateMutability": "view",
      "type": "function"
    },
    {
      "inputs": [
        {
          "internalType": "address",
          "name": "patient",
          "type": "address"
        }
      ],
      "name": "viewPatientRecords",
      "outputs": [
        {
          "components": [
            {
              "internalType": "uint32",
              "name": "id",
              "type": "uint32"
            },
            {
              "internalType": "address",
              "name": "patient",
              "type": "address"
            },
            {
              "internalType": "address",
              "name": "doctor",
              "type": "address"
            },
            {
              "internalType": "string",
              "name": "ipfsHash",
              "type": "string"
            },
            {
              "internalType": "string",
              "name": "prescription",
              "type": "string"
            },
            {
              "internalType": "string",
              "name": "notes",
              "type": "string"
            },
            {
              "internalType": "string",
              "name": "vitals",
              "type": "string"
            },
            {
              "internalType": "uint256",
              "name": "createdAt",
              "type": "uint256"
            },
            {
              "internalType": "uint256",
              "name": "lastUpdated",
              "type": "uint256"
            }
          ],
          "internalType": "struct HospitalRecords.Record[]",
          "name": "",
          "type": "tuple[]"
        }
      ],
      "stateMutability": "view",
      "type": "function"
    },
    {
      "inputs": [],
      "name": "viewReferredPatients",
      "outputs": [
        {
          "components": [
            {
              "internalType": "address",
              "name": "fromDoctor",
              "type": "address"
            },
            {
              "internalType": "address",
              "name": "toDoctor",
              "type": "address"
            },
            {
              "internalType": "uint32",
              "name": "recordId",
              "type": "uint32"
            },
            {
              "internalType": "enum HospitalRecords.ReferralStatus",
              "name": "status",
              "type": "uint8"
            }
          ],
          "internalType": "struct HospitalRecords.Referral[]",
          "name": "",
          "type": "tuple[]"
        }
      ],
      "stateMutability": "view",
      "type": "function"
    }
  ],
  "bytecode": "0x608060405234801561001057600080fd5b50336000818152600260205260408120805460ff191660051790556009805460018101825591527f6e1540171b6c0c960b71a7020d9f60077f6af931a8bbf590da0223dacf75c7af0180546001600160a01b0319169091179055615182806100796000396000f3fe608060405234801561001057600080fd5b50600436106102345760003560e01c80637395be3711610131578063b388e8d7116100b3578063b388e8d71461054a578063bab90dbd1461055d578063bfde8ac614610570578063d46d203114610595578063d6eb4d501461059d578063d8505816146105b0578063e1c3270a146105c3578063e697b5d8146105d8578063f19fc635146105fb578063f591293f1461060e578063f695a44d1461062157600080fd5b80637395be37146104635780637e2ce40014610478578063853ac8dd146104805780638bbcb438146104935780638caaeb24146104a6578063900407bc146104b957806393119a83146104c957806398fc90e9146104dc57806399374642146104ef578063a4fd4be31461051f578063a66c254f1461053257600080fd5b80633bd29d69116101ba5780633bd29d691461035a5780633d18223f146103825780633dd390b2146103955780634f5f9a18146103bd57806358e7617c146103de5780635e2547f2146103f157806360246d60146104045780636b65ae48146104175780636efb1b841461042a578063704802751461043d57806371fb4d3a1461045057600080fd5b806310be6c331461023957806310c5f0251461024e578063122dbe141461027b5780631365e5d11461029b57806314bfd6d0146102ae57806316a6f691146102d957806324f6753b146102ec5780632ed226ad146102ff5780633239515e146103215780633a64e0d1146103345780633b139f2514610347575b600080fd5b61024c6102473660046144b6565b610634565b005b61026161025c36600461454e565b6107f1565b6040516102729594939291906145b6565b60405180910390f35b61028e61028936600461454e565b610a3f565b6040516102729190614615565b61024c6102a9366004614724565b610ef7565b6102c16102bc366004614760565b611079565b6040516001600160a01b039091168152602001610272565b61024c6102e73660046144b6565b6110a3565b61024c6102fa366004614779565b6111ca565b61031261030d36600461454e565b6112e3565b604051610272939291906147ec565b61024c61032f366004614779565b61149d565b6102c1610342366004614760565b61162b565b61024c61035536600461482f565b61163b565b61036d610368366004614876565b611728565b60405161027299989796959493929190614891565b61024c610390366004614920565b6119a6565b6103a86103a3366004614760565b611b64565b60405163ffffffff9091168152602001610272565b6103d06103cb36600461454e565b611b9e565b604051610272929190614963565b61024c6103ec36600461454e565b611cca565b6103a86103ff366004614991565b611da5565b61024c6104123660046149bb565b611dee565b61024c6104253660046149d9565b611ed1565b6102c1610438366004614760565b612101565b61024c61044b36600461454e565b612111565b61024c61045e36600461454e565b612242565b61046b612311565b6040516102729190614af4565b61028e6123b8565b61024c61048e366004614779565b612740565b61024c6104a13660046144b6565b6128c7565b61024c6104b4366004614b07565b612bac565b6000546103a89063ffffffff1681565b6102c16104d7366004614760565b612cb1565b61024c6104ea36600461454e565b612cc1565b6105126104fd36600461454e565b60026020526000908152604090205460ff1681565b6040516102729190614b39565b6103d061052d36600461454e565b612d90565b61053a612f39565b6040516102729493929190614b53565b61024c610558366004614779565b613109565b61031261056b36600461454e565b613214565b61058361057e36600461454e565b613457565b60405161027296959493929190614bab565b61046b613837565b6103d06105ab36600461454e565b613899565b6102c16105be366004614760565b6138b4565b6105cb6138c4565b6040516102729190614c5f565b6105eb6105e6366004614991565b613d3b565b6040516102729493929190614ce1565b61024c610609366004614d12565b613d9c565b61024c61061c366004614d31565b613e90565b6103d061062f36600461454e565b613ff5565b6005803360009081526002602052604090205460ff16600581111561065b5761065b614b23565b146106815760405162461bcd60e51b815260040161067890614df6565b60405180910390fd5b60036001600160a01b03861660009081526002602052604090205460ff1660058111156106b0576106b0614b23565b036106f05760405162461bcd60e51b815260206004820152601060248201526f20b63932b0b23c9030903237b1ba37b960811b6044820152606401610678565b6001600160a01b0385166000818152600260209081526040808320805460ff1916600390811790915581516060810183528981528084018990528083018890529484529091529020815181906107469082614e9e565b506020820151600182019061075b9082614e9e565b50604082015160028201906107709082614e9e565b5050600a80546001810182556000919091527fc65a7bb8d6351c1cf70c95a316cc6a92839c986682d98bc35f958f4883f9d2a80180546001600160a01b0319166001600160a01b03881690811790915560405190915060008051602061510d833981519152906107e290600390614b39565b60405180910390a25050505050565b60016020526000908152604090208054819061080c90614e1c565b80601f016020809104026020016040519081016040528092919081815260200182805461083890614e1c565b80156108855780601f1061085a57610100808354040283529160200191610885565b820191906000526020600020905b81548152906001019060200180831161086857829003601f168201915b50505050509080600101805461089a90614e1c565b80601f01602080910402602001604051908101604052809291908181526020018280546108c690614e1c565b80156109135780601f106108e857610100808354040283529160200191610913565b820191906000526020600020905b8154815290600101906020018083116108f657829003601f168201915b50505050509080600201549080600301805461092e90614e1c565b80601f016020809104026020016040519081016040528092919081815260200182805461095a90614e1c565b80156109a75780601f1061097c576101008083540402835291602001916109a7565b820191906000526020600020905b81548152906001019060200180831161098a57829003601f168201915b5050505050908060040180546109bc90614e1c565b80601f01602080910402602001604051908101604052809291908181526020018280546109e890614e1c565b8015610a355780601f10610a0a57610100808354040283529160200191610a35565b820191906000526020600020905b815481529060010190602001808311610a1857829003601f168201915b5050505050905085565b606060013360009081526002602052604090205460ff166005811115610a6757610a67614b23565b148015610a7c5750336001600160a01b038316145b80610aaa575060033360009081526002602052604090205460ff166005811115610aa857610aa8614b23565b145b80610ad8575060023360009081526002602052604090205460ff166005811115610ad657610ad6614b23565b145b610af45760405162461bcd60e51b815260040161067890614df6565b6001600160a01b038216600090815260076020908152604080832080548251818502810185019093528083529192909190830182828015610b8057602002820191906000526020600020906000905b82829054906101000a900463ffffffff1663ffffffff1681526020019060040190602082600301049283019260010382029150808411610b435790505b50505050509050600081516001600160401b03811115610ba257610ba2614414565b604051908082528060200260200182016040528015610bdb57816020015b610bc8614394565b815260200190600190039081610bc05790505b50905060005b8251811015610eef5760066000848381518110610c0057610c00614f5d565b60209081029190910181015163ffffffff908116835282820193909352604091820160002082516101208101845281549485168152600160201b9094046001600160a01b0390811692850192909252600181015490911691830191909152600281018054606084019190610c7390614e1c565b80601f0160208091040260200160405190810160405280929190818152602001828054610c9f90614e1c565b8015610cec5780601f10610cc157610100808354040283529160200191610cec565b820191906000526020600020905b815481529060010190602001808311610ccf57829003601f168201915b50505050508152602001600382018054610d0590614e1c565b80601f0160208091040260200160405190810160405280929190818152602001828054610d3190614e1c565b8015610d7e5780601f10610d5357610100808354040283529160200191610d7e565b820191906000526020600020905b815481529060010190602001808311610d6157829003601f168201915b50505050508152602001600482018054610d9790614e1c565b80601f0160208091040260200160405190810160405280929190818152602001828054610dc390614e1c565b8015610e105780601f10610de557610100808354040283529160200191610e10565b820191906000526020600020905b815481529060010190602001808311610df357829003601f168201915b50505050508152602001600582018054610e2990614e1c565b80601f0160208091040260200160405190810160405280929190818152602001828054610e5590614e1c565b8015610ea25780601f10610e7757610100808354040283529160200191610ea2565b820191906000526020600020905b815481529060010190602001808311610e8557829003601f168201915b5050505050815260200160068201548152602001600782015481525050828281518110610ed157610ed1614f5d565b60200260200101819052508080610ee790614f89565b915050610be1565b509392505050565b3360009081526002602052604081205460ff166005811115610f1b57610f1b614b23565b14610f385760405162461bcd60e51b815260040161067890614fa2565b336000818152600260209081526040808320805460ff19166001908117909155815160a0810183528681528251808501845285815281850152808301859052825180850184528581526060820152825180850184528581526080820152948452909152902081518190610fab9082614e9e565b5060208201516001820190610fc09082614e9e565b506040820151600282015560608201516003820190610fdf9082614e9e565b5060808201516004820190610ff49082614e9e565b5050600d80546001810182556000919091527fd7b6990105719101dabeb77144f2a3385c8033acd3af97e9423a695e81ad1eb50180546001600160a01b031916339081179091556040519091507ffec7463cedef4cce60836dd4add6edb67657586acf0f63bf116c3a5c0fd7dbf39061106e908490614fce565b60405180910390a250565b6009818154811061108957600080fd5b6000918252602090912001546001600160a01b0316905081565b6005803360009081526002602052604090205460ff1660058111156110ca576110ca614b23565b146110e75760405162461bcd60e51b815260040161067890614df6565b60036001600160a01b03861660009081526002602052604090205460ff16600581111561111657611116614b23565b146111335760405162461bcd60e51b815260040161067890614fe1565b6040805160608101825285815260208082018690528183018590526001600160a01b0388166000908152600390915291909120815181906111749082614e9e565b50602082015160018201906111899082614e9e565b506040820151600282019061119e9082614e9e565b50905050846001600160a01b03166000805160206150ed83398151915260036040516107e29190614b39565b6005803360009081526002602052604090205460ff1660058111156111f1576111f1614b23565b1461120e5760405162461bcd60e51b815260040161067890614df6565b60046001600160a01b03851660009081526002602052604090205460ff16600581111561123d5761123d614b23565b1461125a5760405162461bcd60e51b815260040161067890615007565b60408051808201825284815260208082018590526001600160a01b0387166000908152600590915291909120815181906112949082614e9e565b50602082015160018201906112a99082614e9e565b50905050836001600160a01b03166000805160206150ed83398151915260046040516112d59190614b39565b60405180910390a250505050565b6003602052600090815260409020805481906112fe90614e1c565b80601f016020809104026020016040519081016040528092919081815260200182805461132a90614e1c565b80156113775780601f1061134c57610100808354040283529160200191611377565b820191906000526020600020905b81548152906001019060200180831161135a57829003601f168201915b50505050509080600101805461138c90614e1c565b80601f01602080910402602001604051908101604052809291908181526020018280546113b890614e1c565b80156114055780601f106113da57610100808354040283529160200191611405565b820191906000526020600020905b8154815290600101906020018083116113e857829003601f168201915b50505050509080600201805461141a90614e1c565b80601f016020809104026020016040519081016040528092919081815260200182805461144690614e1c565b80156114935780601f1061146857610100808354040283529160200191611493565b820191906000526020600020905b81548152906001019060200180831161147657829003601f168201915b5050505050905083565b6005803360009081526002602052604090205460ff1660058111156114c4576114c4614b23565b146114e15760405162461bcd60e51b815260040161067890614df6565b60046001600160a01b03851660009081526002602052604090205460ff16600581111561151057611510614b23565b036115565760405162461bcd60e51b8152602060048201526016602482015275105b1c9958591e4818481c9958d95c1d1a5bdb9a5cdd60521b6044820152606401610678565b6001600160a01b0384166000818152600260209081526040808320805460ff191660041790558051808201825287815280830187905293835260059091529020815181906115a49082614e9e565b50602082015160018201906115b99082614e9e565b5050600c80546001810182556000919091527fdf6966c971051c3d54ec59162606531493a51404a002842f56009d7e5cf4a8c70180546001600160a01b0319166001600160a01b03871690811790915560405190915060008051602061510d833981519152906112d590600490614b39565b600b818154811061108957600080fd5b6004803360009081526002602052604090205460ff16600581111561166257611662614b23565b1461167f5760405162461bcd60e51b815260040161067890614df6565b60016001600160a01b03841660009081526002602052604090205460ff1660058111156116ae576116ae614b23565b146116cb5760405162461bcd60e51b815260040161067890615033565b60036001600160a01b03831660009081526002602052604090205460ff1660058111156116fa576116fa614b23565b146117175760405162461bcd60e51b815260040161067890614fe1565b61172360008385614074565b505050565b60066020526000908152604090208054600182015460028301805463ffffffff841694600160201b9094046001600160a01b0390811694931692919061176d90614e1c565b80601f016020809104026020016040519081016040528092919081815260200182805461179990614e1c565b80156117e65780601f106117bb576101008083540402835291602001916117e6565b820191906000526020600020905b8154815290600101906020018083116117c957829003601f168201915b5050505050908060030180546117fb90614e1c565b80601f016020809104026020016040519081016040528092919081815260200182805461182790614e1c565b80156118745780601f1061184957610100808354040283529160200191611874565b820191906000526020600020905b81548152906001019060200180831161185757829003601f168201915b50505050509080600401805461188990614e1c565b80601f01602080910402602001604051908101604052809291908181526020018280546118b590614e1c565b80156119025780601f106118d757610100808354040283529160200191611902565b820191906000526020600020905b8154815290600101906020018083116118e557829003601f168201915b50505050509080600501805461191790614e1c565b80601f016020809104026020016040519081016040528092919081815260200182805461194390614e1c565b80156119905780601f1061196557610100808354040283529160200191611990565b820191906000526020600020905b81548152906001019060200180831161197357829003601f168201915b5050505050908060060154908060070154905089565b6001803360009081526002602052604090205460ff1660058111156119cd576119cd614b23565b146119ea5760405162461bcd60e51b815260040161067890614df6565b336000908152600860205260409020548410611a385760405162461bcd60e51b815260206004820152600d60248201526c092dcecc2d8d2c840d2dcc8caf609b1b6044820152606401610678565b336000908152600860205260408120805486908110611a5957611a59614f5d565b60009182526020822060029091020191506001820154600160c01b900460ff166002811115611a8a57611a8a614b23565b14611ac95760405162461bcd60e51b815260206004820152600f60248201526e105b1c9958591e481a185b991b1959608a1b6044820152606401610678565b8315611ae95760018101805460ff60c01b1916600160c01b179055611b5d565b60018101805460ff60c01b1916600160c11b1790556001600160a01b03831615801590611b42575060036001600160a01b03841660009081526002602052604090205460ff166005811115611b4057611b40614b23565b145b15611b5d578054611b5d906001600160a01b03168433614074565b5050505050565b600e8181548110611b7457600080fd5b9060005260206000209060089182820401919006600402915054906101000a900463ffffffff1681565b600560205260009081526040902080548190611bb990614e1c565b80601f0160208091040260200160405190810160405280929190818152602001828054611be590614e1c565b8015611c325780601f10611c0757610100808354040283529160200191611c32565b820191906000526020600020905b815481529060010190602001808311611c1557829003601f168201915b505050505090806001018054611c4790614e1c565b80601f0160208091040260200160405190810160405280929190818152602001828054611c7390614e1c565b8015611cc05780601f10611c9557610100808354040283529160200191611cc0565b820191906000526020600020905b815481529060010190602001808311611ca357829003601f168201915b5050505050905082565b6005803360009081526002602052604090205460ff166005811115611cf157611cf1614b23565b14611d0e5760405162461bcd60e51b815260040161067890614df6565b60026001600160a01b03831660009081526002602052604090205460ff166005811115611d3d57611d3d614b23565b14611d5a5760405162461bcd60e51b81526004016106789061505a565b6001600160a01b038216600081815260026020819052604091829020805460ff19169055905160008051602061512d83398151915291611d9991614b39565b60405180910390a25050565b60076020528160005260406000208181548110611dc157600080fd5b9060005260206000209060089182820401919006600402915091509054906101000a900463ffffffff1681565b6002803360009081526002602052604090205460ff166005811115611e1557611e15614b23565b14611e325760405162461bcd60e51b815260040161067890614df6565b63ffffffff841660009081526006602052604090208054600160201b90046001600160a01b0316611e755760405162461bcd60e51b81526004016106789061507f565b60058101611e838582614e9e565b5060048101611e928482614e9e565b5042600782015560405163ffffffff8616907f84444cfa2ff32fe5802d29b32a9c0e293da60f31d62bd813c417224f0ee00ed7906107e2908790614fce565b6004803360009081526002602052604090205460ff166005811115611ef857611ef8614b23565b14611f155760405162461bcd60e51b815260040161067890614df6565b6001600160a01b03881660009081526002602052604081205460ff166005811115611f4257611f42614b23565b14611f5f5760405162461bcd60e51b815260040161067890614fa2565b6001600160a01b0388166000818152600260209081526040808320805460ff19166001908117909155815160a0810183528c81528084018c90528083018b9052606081018a905260808101899052948452909152902081518190611fc39082614e9e565b5060208201516001820190611fd89082614e9e565b506040820151600282015560608201516003820190611ff79082614e9e565b506080820151600482019061200c9082614e9e565b5050600d80546001810182556000919091527fd7b6990105719101dabeb77144f2a3385c8033acd3af97e9423a695e81ad1eb50180546001600160a01b0319166001600160a01b038b8116919091179091558316158015915061209b575060036001600160a01b03831660009081526002602052604090205460ff16600581111561209957612099614b23565b145b156120ac576120ac6000838a614074565b816001600160a01b0316886001600160a01b03167fc9b94eca9b50cb33261f477f3ace20bb18c35cdb553d6b1232c5334cb5eb9d39896040516120ef9190614fce565b60405180910390a35050505050505050565b600a818154811061108957600080fd5b6005803360009081526002602052604090205460ff16600581111561213857612138614b23565b146121555760405162461bcd60e51b815260040161067890614df6565b60056001600160a01b03831660009081526002602052604090205460ff16600581111561218457612184614b23565b036121c15760405162461bcd60e51b815260206004820152600d60248201526c20b63932b0b23c9030b236b4b760991b6044820152606401610678565b6001600160a01b038216600081815260026020526040808220805460ff191660059081179091556009805460018101825593527f6e1540171b6c0c960b71a7020d9f60077f6af931a8bbf590da0223dacf75c7af90920180546001600160a01b031916841790555160008051602061510d83398151915291611d9991614b39565b6005803360009081526002602052604090205460ff16600581111561226957612269614b23565b146122865760405162461bcd60e51b815260040161067890614df6565b60046001600160a01b03831660009081526002602052604090205460ff1660058111156122b5576122b5614b23565b146122d25760405162461bcd60e51b815260040161067890615007565b6001600160a01b03821660008181526002602052604090819020805460ff191690555160008051602061512d83398151915290611d9990600490614b39565b60606004803360009081526002602052604090205460ff16600581111561233a5761233a614b23565b146123575760405162461bcd60e51b815260040161067890614df6565b600d8054806020026020016040519081016040528092919081815260200182805480156123ad57602002820191906000526020600020905b81546001600160a01b0316815260019091019060200180831161238f575b505050505091505090565b600e546060906000906001600160401b038111156123d8576123d8614414565b60405190808252806020026020018201604052801561241157816020015b6123fe614394565b8152602001906001900390816123f65790505b50905060005b600e5481101561273a5760066000600e838154811061243857612438614f5d565b6000918252602080832060088304015463ffffffff60046007909416939093026101000a900482168452838101949094526040928301909120825161012081018452815492831681526001600160a01b03600160201b9093048316948101949094526001810154909116918301919091526002810180546060840191906124be90614e1c565b80601f01602080910402602001604051908101604052809291908181526020018280546124ea90614e1c565b80156125375780601f1061250c57610100808354040283529160200191612537565b820191906000526020600020905b81548152906001019060200180831161251a57829003601f168201915b5050505050815260200160038201805461255090614e1c565b80601f016020809104026020016040519081016040528092919081815260200182805461257c90614e1c565b80156125c95780601f1061259e576101008083540402835291602001916125c9565b820191906000526020600020905b8154815290600101906020018083116125ac57829003601f168201915b505050505081526020016004820180546125e290614e1c565b80601f016020809104026020016040519081016040528092919081815260200182805461260e90614e1c565b801561265b5780601f106126305761010080835404028352916020019161265b565b820191906000526020600020905b81548152906001019060200180831161263e57829003601f168201915b5050505050815260200160058201805461267490614e1c565b80601f01602080910402602001604051908101604052809291908181526020018280546126a090614e1c565b80156126ed5780601f106126c2576101008083540402835291602001916126ed565b820191906000526020600020905b8154815290600101906020018083116126d057829003601f168201915b505050505081526020016006820154815260200160078201548152505082828151811061271c5761271c614f5d565b6020026020010181905250808061273290614f89565b915050612417565b50919050565b6005803360009081526002602052604090205460ff16600581111561276757612767614b23565b146127845760405162461bcd60e51b815260040161067890614df6565b60026001600160a01b03851660009081526002602052604090205460ff1660058111156127b3576127b3614b23565b036127f25760405162461bcd60e51b815260206004820152600f60248201526e416c72656164792061206e7572736560881b6044820152606401610678565b6001600160a01b0384166000818152600260208181526040808420805460ff191690931790925581518083018352878152808201879052938352600490529020815181906128409082614e9e565b50602082015160018201906128559082614e9e565b5050600b80546001810182556000919091527f0175b7a638427703f0dbe7bb9bbf987a2551717b34e79f33b5b1008d1fa01db90180546001600160a01b0319166001600160a01b03871690811790915560405190915060008051602061510d833981519152906112d590600290614b39565b6003803360009081526002602052604090205460ff1660058111156128ee576128ee614b23565b1461290b5760405162461bcd60e51b815260040161067890614df6565b60016001600160a01b03861660009081526002602052604090205460ff16600581111561293a5761293a614b23565b1461297d5760405162461bcd60e51b8152602060048201526013602482015272139bdd0818481d985b1a59081c185d1a595b9d606a1b6044820152606401610678565b60008054819081906129949063ffffffff166150a7565b825461010092830a63ffffffff818102199092168383169182021790945560408051610120810182528581526001600160a01b038c8116602080840191825233848601908152606085018f8152608086018f905260a086018e905286518084018852600080825260c08801919091524260e088018190529a87019a909a5299895260069091529390962082518154975195166001600160c01b031990971696909617600160201b9482169490940293909317855590516001850180546001600160a01b031916919093161790915592519093506002820190612a769082614e9e565b5060808201516003820190612a8b9082614e9e565b5060a08201516004820190612aa09082614e9e565b5060c08201516005820190612ab59082614e9e565b5060e08201516006820155610100918201516007918201556001600160a01b0388166000908152602082815260408083208054600181810183559185529284206008808504909101805463ffffffff808b166004978a1688028b0a8181029083021990931692909217909255600e805494850181559096529082047fbb7b4a454dc3493923482f07822329ed19e8244eff582cc204f8554c3620c3fd0180549290961690930290950a8084029202199094161790915590517fd786ba60c2f79fdcb102af623f63090db2a150d7f4e3c19addcb406ad05deabe90612b9c90889042906150ca565b60405180910390a2505050505050565b6003803360009081526002602052604090205460ff166005811115612bd357612bd3614b23565b14612bf05760405162461bcd60e51b815260040161067890614df6565b63ffffffff8316600090815260066020526040902054600160201b90046001600160a01b0316612c325760405162461bcd60e51b81526004016106789061507f565b60036001600160a01b03831660009081526002602052604090205460ff166005811115612c6157612c61614b23565b14612c7e5760405162461bcd60e51b815260040161067890614fe1565b63ffffffff83166000908152600660205260409020546117239033908490600160201b90046001600160a01b0316614074565b600d818154811061108957600080fd5b6005803360009081526002602052604090205460ff166005811115612ce857612ce8614b23565b14612d055760405162461bcd60e51b815260040161067890614df6565b60036001600160a01b03831660009081526002602052604090205460ff166005811115612d3457612d34614b23565b14612d515760405162461bcd60e51b815260040161067890614fe1565b6001600160a01b03821660008181526002602052604090819020805460ff191690555160008051602061512d83398151915290611d9990600390614b39565b60608060026001600160a01b03841660009081526002602052604090205460ff166005811115612dc257612dc2614b23565b14612ddf5760405162461bcd60e51b81526004016106789061505a565b6001600160a01b0383166000908152600460205260408082208151808301909252805482908290612e0f90614e1c565b80601f0160208091040260200160405190810160405280929190818152602001828054612e3b90614e1c565b8015612e885780601f10612e5d57610100808354040283529160200191612e88565b820191906000526020600020905b815481529060010190602001808311612e6b57829003601f168201915b50505050508152602001600182018054612ea190614e1c565b80601f0160208091040260200160405190810160405280929190818152602001828054612ecd90614e1c565b8015612f1a5780601f10612eef57610100808354040283529160200191612f1a565b820191906000526020600020905b815481529060010190602001808311612efd57829003601f168201915b5050505050815250509050806000015181602001519250925050915091565b60608080806005803360009081526002602052604090205460ff166005811115612f6557612f65614b23565b14612f825760405162461bcd60e51b815260040161067890614df6565b6009600a600b600c83805480602002602001604051908101604052809291908181526020018280548015612fdf57602002820191906000526020600020905b81546001600160a01b03168152600190910190602001808311612fc1575b505050505093508280548060200260200160405190810160405280929190818152602001828054801561303b57602002820191906000526020600020905b81546001600160a01b0316815260019091019060200180831161301d575b505050505092508180548060200260200160405190810160405280929190818152602001828054801561309757602002820191906000526020600020905b81546001600160a01b03168152600190910190602001808311613079575b50505050509150808054806020026020016040519081016040528092919081815260200182805480156130f357602002820191906000526020600020905b81546001600160a01b031681526001909101906020018083116130d5575b5050505050905094509450945094505090919293565b6005803360009081526002602052604090205460ff16600581111561313057613130614b23565b1461314d5760405162461bcd60e51b815260040161067890614df6565b60026001600160a01b03851660009081526002602052604090205460ff16600581111561317c5761317c614b23565b146131995760405162461bcd60e51b81526004016106789061505a565b60408051808201825284815260208082018590526001600160a01b0387166000908152600490915291909120815181906131d39082614e9e565b50602082015160018201906131e89082614e9e565b50905050836001600160a01b03166000805160206150ed83398151915260026040516112d59190614b39565b6060808060036001600160a01b03851660009081526002602052604090205460ff16600581111561324757613247614b23565b146132645760405162461bcd60e51b815260040161067890614fe1565b6001600160a01b03841660009081526003602052604080822081516060810190925280548290829061329590614e1c565b80601f01602080910402602001604051908101604052809291908181526020018280546132c190614e1c565b801561330e5780601f106132e35761010080835404028352916020019161330e565b820191906000526020600020905b8154815290600101906020018083116132f157829003601f168201915b5050505050815260200160018201805461332790614e1c565b80601f016020809104026020016040519081016040528092919081815260200182805461335390614e1c565b80156133a05780601f10613375576101008083540402835291602001916133a0565b820191906000526020600020905b81548152906001019060200180831161338357829003601f168201915b505050505081526020016002820180546133b990614e1c565b80601f01602080910402602001604051908101604052809291908181526020018280546133e590614e1c565b80156134325780601f1061340757610100808354040283529160200191613432565b820191906000526020600020905b81548152906001019060200180831161341557829003601f168201915b5050509190925250508151602083015160409093015190989297509550909350505050565b60608060008180806004803360009081526002602052604090205460ff16600581111561348657613486614b23565b146134a35760405162461bcd60e51b815260040161067890614df6565b60016001600160a01b03891660009081526002602052604090205460ff1660058111156134d2576134d2614b23565b146134ef5760405162461bcd60e51b815260040161067890615033565b6001600160a01b038816600090815260016020526040808220815160a0810190925280548290829061352090614e1c565b80601f016020809104026020016040519081016040528092919081815260200182805461354c90614e1c565b80156135995780601f1061356e57610100808354040283529160200191613599565b820191906000526020600020905b81548152906001019060200180831161357c57829003601f168201915b505050505081526020016001820180546135b290614e1c565b80601f01602080910402602001604051908101604052809291908181526020018280546135de90614e1c565b801561362b5780601f106136005761010080835404028352916020019161362b565b820191906000526020600020905b81548152906001019060200180831161360e57829003601f168201915b505050505081526020016002820154815260200160038201805461364e90614e1c565b80601f016020809104026020016040519081016040528092919081815260200182805461367a90614e1c565b80156136c75780601f1061369c576101008083540402835291602001916136c7565b820191906000526020600020905b8154815290600101906020018083116136aa57829003601f168201915b505050505081526020016004820180546136e090614e1c565b80601f016020809104026020016040519081016040528092919081815260200182805461370c90614e1c565b80156137595780601f1061372e57610100808354040283529160200191613759565b820191906000526020600020905b81548152906001019060200180831161373c57829003601f168201915b505050505081525050905080600001518160200151826040015183606001518460800151600760008f6001600160a01b03166001600160a01b031681526020019081526020016000208080548060200260200160405190810160405280929190818152602001828054801561381957602002820191906000526020600020906000905b82829054906101000a900463ffffffff1663ffffffff16815260200190600401906020826003010492830192600103820291508084116137dc5790505b50505050509050975097509750975097509750505091939550919395565b6060600a80548060200260200160405190810160405280929190818152602001828054801561388f57602002820191906000526020600020905b81546001600160a01b03168152600190910190602001808311613871575b5050505050905090565b600460205260009081526040902080548190611bb990614e1c565b600c818154811061108957600080fd5b60606003803360009081526002602052604090205460ff1660058111156138ed576138ed614b23565b1461390a5760405162461bcd60e51b815260040161067890614df6565b6000805b600d54811015613ac757600060086000600d848154811061393157613931614f5d565b60009182526020808320909101546001600160a01b031683528281019390935260409182018120805483518186028101860190945280845292939092919084015b82821015613a0f57600084815260209081902060408051608081018252600286810290930180546001600160a01b039081168352600182015490811695830195909552600160a01b850463ffffffff16928201929092529290916060840191600160c01b900460ff16908111156139eb576139eb614b23565b60028111156139fc576139fc614b23565b8152505081526020019060010190613972565b50505050905060005b8151811015613ab257336001600160a01b0316828281518110613a3d57613a3d614f5d565b6020026020010151602001516001600160a01b0316148015613a8d57506000828281518110613a6e57613a6e614f5d565b6020026020010151606001516002811115613a8b57613a8b614b23565b145b15613aa05783613a9c81614f89565b9450505b80613aaa81614f89565b915050613a18565b50508080613abf90614f89565b91505061390e565b506000816001600160401b03811115613ae257613ae2614414565b604051908082528060200260200182016040528015613b3b57816020015b613b286040805160808101825260008082526020820181905291810182905290606082015290565b815260200190600190039081613b005790505b5090506000805b600d54811015613d3157600060086000600d8481548110613b6557613b65614f5d565b60009182526020808320909101546001600160a01b031683528281019390935260409182018120805483518186028101860190945280845292939092919084015b82821015613c4357600084815260209081902060408051608081018252600286810290930180546001600160a01b039081168352600182015490811695830195909552600160a01b850463ffffffff16928201929092529290916060840191600160c01b900460ff1690811115613c1f57613c1f614b23565b6002811115613c3057613c30614b23565b8152505081526020019060010190613ba6565b50505050905060005b8151811015613d1c57336001600160a01b0316828281518110613c7157613c71614f5d565b6020026020010151602001516001600160a01b0316148015613cc157506000828281518110613ca257613ca2614f5d565b6020026020010151606001516002811115613cbf57613cbf614b23565b145b15613d0a57818181518110613cd857613cd8614f5d565b6020026020010151858580613cec90614f89565b965081518110613cfe57613cfe614f5d565b60200260200101819052505b80613d1481614f89565b915050613c4c565b50508080613d2990614f89565b915050613b42565b5090935050505090565b60086020528160005260406000208181548110613d5757600080fd5b6000918252602090912060029091020180546001909101546001600160a01b0391821693509081169150600160a01b810463ffffffff1690600160c01b900460ff1684565b6003803360009081526002602052604090205460ff166005811115613dc357613dc3614b23565b14613de05760405162461bcd60e51b815260040161067890614df6565b63ffffffff851660009081526006602052604090208054600160201b90046001600160a01b0316613e235760405162461bcd60e51b81526004016106789061507f565b60038101613e318682614e9e565b5060048101613e408582614e9e565b5060028101613e4f8482614e9e565b50426007820181905560405163ffffffff8816917fd786ba60c2f79fdcb102af623f63090db2a150d7f4e3c19addcb406ad05deabe91612b9c9187916150ca565b6004803360009081526002602052604090205460ff166005811115613eb757613eb7614b23565b14613ed45760405162461bcd60e51b815260040161067890614df6565b60016001600160a01b03881660009081526002602052604090205460ff166005811115613f0357613f03614b23565b14613f205760405162461bcd60e51b815260040161067890615033565b6040805160a081018252878152602080820188905281830187905260608201869052608082018590526001600160a01b038a16600090815260019091529190912081518190613f6f9082614e9e565b5060208201516001820190613f849082614e9e565b506040820151600282015560608201516003820190613fa39082614e9e565b5060808201516004820190613fb89082614e9e565b50905050866001600160a01b03166000805160206150ed8339815191526001604051613fe49190614b39565b60405180910390a250505050505050565b60608060046001600160a01b03841660009081526002602052604090205460ff16600581111561402757614027614b23565b146140445760405162461bcd60e51b815260040161067890615007565b6001600160a01b0383166000908152600560205260408082208151808301909252805482908290612e0f90614e1c565b600080548190819061408b9063ffffffff166150a7565b825461010092830a63ffffffff818102199092168383169182021790945560408051610120810182528581526001600160a01b0388811660208084019182528b8316848601908152855180830187526000808252606087019182528751808501895281815260808801528751808501895281815260a08801528751808501895281815260c08801524260e088018190529a87019a909a5299895260069091529390962082518154975195166001600160c01b031990971696909617600160201b9482169490940293909317855590516001850180546001600160a01b0319169190931617909155925190935060028201906141869082614e9e565b506080820151600382019061419b9082614e9e565b5060a082015160048201906141b09082614e9e565b5060c082015160058201906141c59082614e9e565b5060e08201516006820155610100918201516007918201556001600160a01b0384811660008181526020848152604080832080546001808201835591855283852060088083049091018054928a1660049081028c0a63ffffffff818102199095168e861691820217909255600e805495860190557fbb7b4a454dc3493923482f07822329ed19e8244eff582cc204f8554c3620c3fd83860401805495909b1602909a0a918202199092169089021790965592825293845281812082516080810184528a8516815293891694840194909452908201939093529091606082015281546001818101845560009384526020938490208351600293840290910180546001600160a01b039283166001600160a01b0319909116178155948401519185018054604086015163ffffffff16600160a01b026001600160c01b031990911693909216929092171780825560608401519394939260ff60c01b1990911690600160c01b90849081111561433a5761433a614b23565b02179055505060405163ffffffff831681526001600160a01b03808616925086811691908516907f3351b5a2d638aa7431dd787667a3c0487664da7afb1401fae266fe2c8a8327e69060200160405180910390a450505050565b604051806101200160405280600063ffffffff16815260200160006001600160a01b0316815260200160006001600160a01b031681526020016060815260200160608152602001606081526020016060815260200160008152602001600081525090565b80356001600160a01b038116811461440f57600080fd5b919050565b634e487b7160e01b600052604160045260246000fd5b600082601f83011261443b57600080fd5b81356001600160401b038082111561445557614455614414565b604051601f8301601f19908116603f0116810190828211818310171561447d5761447d614414565b8160405283815286602085880101111561449657600080fd5b836020870160208301376000602085830101528094505050505092915050565b600080600080608085870312156144cc57600080fd5b6144d5856143f8565b935060208501356001600160401b03808211156144f157600080fd5b6144fd8883890161442a565b9450604087013591508082111561451357600080fd5b61451f8883890161442a565b9350606087013591508082111561453557600080fd5b506145428782880161442a565b91505092959194509250565b60006020828403121561456057600080fd5b614569826143f8565b9392505050565b6000815180845260005b818110156145965760208185018101518683018201520161457a565b506000602082860101526020601f19601f83011685010191505092915050565b60a0815260006145c960a0830188614570565b82810360208401526145db8188614570565b905085604084015282810360608401526145f58186614570565b905082810360808401526146098185614570565b98975050505050505050565b60006020808301818452808551808352604092508286019150828160051b87010184880160005b8381101561471657888303603f190185528151805163ffffffff168452610120818901516001600160a01b038116868b015250818801516001600160a01b038116868a015250606080830151828288015261469983880182614570565b92505050608080830151868303828801526146b48382614570565b9250505060a080830151868303828801526146cf8382614570565b9250505060c080830151868303828801526146ea8382614570565b60e08581015190890152610100948501519490970193909352505050938601939086019060010161463c565b509098975050505050505050565b60006020828403121561473657600080fd5b81356001600160401b0381111561474c57600080fd5b6147588482850161442a565b949350505050565b60006020828403121561477257600080fd5b5035919050565b60008060006060848603121561478e57600080fd5b614797846143f8565b925060208401356001600160401b03808211156147b357600080fd5b6147bf8783880161442a565b935060408601359150808211156147d557600080fd5b506147e28682870161442a565b9150509250925092565b6060815260006147ff6060830186614570565b82810360208401526148118186614570565b905082810360408401526148258185614570565b9695505050505050565b6000806040838503121561484257600080fd5b61484b836143f8565b9150614859602084016143f8565b90509250929050565b803563ffffffff8116811461440f57600080fd5b60006020828403121561488857600080fd5b61456982614862565b63ffffffff8a1681526001600160a01b03898116602083015288166040820152610120606082018190526000906148ca8382018a614570565b905082810360808401526148de8189614570565b905082810360a08401526148f28188614570565b905082810360c08401526149068187614570565b60e084019590955250506101000152979650505050505050565b60008060006060848603121561493557600080fd5b833592506020840135801515811461494c57600080fd5b915061495a604085016143f8565b90509250925092565b6040815260006149766040830185614570565b82810360208401526149888185614570565b95945050505050565b600080604083850312156149a457600080fd5b6149ad836143f8565b946020939093013593505050565b6000806000606084860312156149d057600080fd5b61479784614862565b600080600080600080600060e0888a0312156149f457600080fd5b6149fd886143f8565b965060208801356001600160401b0380821115614a1957600080fd5b614a258b838c0161442a565b975060408a0135915080821115614a3b57600080fd5b614a478b838c0161442a565b965060608a0135955060808a0135915080821115614a6457600080fd5b614a708b838c0161442a565b945060a08a0135915080821115614a8657600080fd5b50614a938a828b0161442a565b925050614aa260c089016143f8565b905092959891949750929550565b600081518084526020808501945080840160005b83811015614ae95781516001600160a01b031687529582019590820190600101614ac4565b509495945050505050565b6020815260006145696020830184614ab0565b60008060408385031215614b1a57600080fd5b61484b83614862565b634e487b7160e01b600052602160045260246000fd5b6020810160068310614b4d57614b4d614b23565b91905290565b608081526000614b666080830187614ab0565b8281036020840152614b788187614ab0565b90508281036040840152614b8c8186614ab0565b90508281036060840152614ba08185614ab0565b979650505050505050565b60c081526000614bbe60c0830189614570565b602083820381850152614bd1828a614570565b91508760408501528382036060850152614beb8288614570565b91508382036080850152614bff8287614570565b84810360a0860152855180825282870193509082019060005b81811015614c3a57845163ffffffff1683529383019391830191600101614c18565b50909b9a5050505050505050505050565b60038110614c5b57614c5b614b23565b9052565b602080825282518282018190526000919060409081850190868401855b82811015614cd457815180516001600160a01b0390811686528782015116878601528581015163ffffffff168686015260609081015190614cbf81870183614c4b565b50506080939093019290850190600101614c7c565b5091979650505050505050565b6001600160a01b0385811682528416602082015263ffffffff83166040820152608081016149886060830184614c4b565b60008060008060808587031215614d2857600080fd5b6144d585614862565b60008060008060008060c08789031215614d4a57600080fd5b614d53876143f8565b955060208701356001600160401b0380821115614d6f57600080fd5b614d7b8a838b0161442a565b96506040890135915080821115614d9157600080fd5b614d9d8a838b0161442a565b9550606089013594506080890135915080821115614dba57600080fd5b614dc68a838b0161442a565b935060a0890135915080821115614ddc57600080fd5b50614de989828a0161442a565b9150509295509295509295565b6020808252600c908201526b155b985d5d1a1bdc9a5e995960a21b604082015260600190565b600181811c90821680614e3057607f821691505b60208210810361273a57634e487b7160e01b600052602260045260246000fd5b601f82111561172357600081815260208120601f850160051c81016020861015614e775750805b601f850160051c820191505b81811015614e9657828155600101614e83565b505050505050565b81516001600160401b03811115614eb757614eb7614414565b614ecb81614ec58454614e1c565b84614e50565b602080601f831160018114614f005760008415614ee85750858301515b600019600386901b1c1916600185901b178555614e96565b600085815260208120601f198616915b82811015614f2f57888601518255948401946001909101908401614f10565b5085821015614f4d5787850151600019600388901b60f8161c191681555b5050505050600190811b01905550565b634e487b7160e01b600052603260045260246000fd5b634e487b7160e01b600052601160045260246000fd5b600060018201614f9b57614f9b614f73565b5060010190565b602080825260129082015271105b1c9958591e481c9959da5cdd195c995960721b604082015260600190565b6020815260006145696020830184614570565b6020808252600c908201526b2737ba1030903237b1ba37b960a11b604082015260600190565b602080825260129082015271139bdd0818481c9958d95c1d1a5bdb9a5cdd60721b604082015260600190565b6020808252600d908201526c139bdd0818481c185d1a595b9d609a1b604082015260600190565b6020808252600b908201526a4e6f742061206e7572736560a81b604082015260600190565b6020808252600e908201526d125b9d985b1a59081c9958dbdc9960921b604082015260600190565b600063ffffffff8083168181036150c0576150c0614f73565b6001019392505050565b6040815260006150dd6040830185614570565b9050826020830152939250505056fee27870ae9b49e790c9e79d804b790b5a63fce97b5ccfcf37f8189728970fad80cf39c50c62a0dfade4823f9201ab731b94a7073ec43aec5d53b20d7bc0265da7496d8f4c2bc867b60dea55ace16af33ce199e7a8fd48c41b7c0be5e3dc51b68ba264697066735822122042aead8305652419d3c19bafb00199d3a3cca92e81421b9638501f078e87ce8864736f6c63430008140033",
  "linkReferences": {},
  "deployedLinkReferences": {}
}