{
  "_format": "hh-sol-artifact-1",
  "contractName": "HospitalRecords",
  "sourceName": "contracts/HospitalRecords.sol",
  "abi": [
    {
      "inputs": [],
      "stateMutability": "nonpayable",
      "type": "constructor"
    },
    {
      "anonymous": false,
      "inputs": [
        {
          "indexed": true,
          "internalType": "uint32",
          "name": "id",
          "type": "uint32"
        },
        {
          "indexed": true,
          "internalType": "address",
          "name": "doctor",
          "type": "address"
        },
        {
          "indexed": true,
          "internalType": "address",
          "name": "patient",
          "type": "address"
        }
      ],
      "name": "RecordAdded",
      "type": "event"
    },
    {
      "anonymous": false,
      "inputs": [
        {
          "indexed": true,
          "internalType": "uint32",
          "name": "id",
          "type": "uint32"
        },
        {
          "indexed": false,
          "internalType": "string",
          "name": "newHash",
          "type": "string"
        }
      ],
      "name": "RecordEdited",
      "type": "event"
    },
    {
      "anonymous": false,
      "inputs": [
        {
          "indexed": true,
          "internalType": "address",
          "name": "patient",
          "type": "address"
        },
        {
          "indexed": true,
          "internalType": "address",
          "name": "fromDoctor",
          "type": "address"
        },
        {
          "indexed": true,
          "internalType": "address",
          "name": "toDoctor",
          "type": "address"
        },
        {
          "indexed": false,
          "internalType": "uint32",
          "name": "recordId",
          "type": "uint32"
        }
      ],
      "name": "ReferralMade",
      "type": "event"
    },
    {
      "anonymous": false,
      "inputs": [
        {
          "indexed": true,
          "internalType": "address",
          "name": "patient",
          "type": "address"
        },
        {
          "indexed": true,
          "internalType": "uint256",
          "name": "referralIndex",
          "type": "uint256"
        },
        {
          "indexed": false,
          "internalType": "enum HospitalRecords.ReferralStatus",
          "name": "status",
          "type": "uint8"
        }
      ],
      "name": "ReferralResponded",
      "type": "event"
    },
    {
      "anonymous": false,
      "inputs": [
        {
          "indexed": true,
          "internalType": "address",
          "name": "user",
          "type": "address"
        },
        {
          "indexed": false,
          "internalType": "enum HospitalRecords.Role",
          "name": "role",
          "type": "uint8"
        }
      ],
      "name": "RoleAssigned",
      "type": "event"
    },
    {
      "inputs": [
        {
          "internalType": "address",
          "name": "user",
          "type": "address"
        },
        {
          "internalType": "string",
          "name": "name",
          "type": "string"
        },
        {
          "internalType": "string",
          "name": "id",
          "type": "string"
        }
      ],
      "name": "addAdmin",
      "outputs": [],
      "stateMutability": "nonpayable",
      "type": "function"
    },
    {
      "inputs": [
        {
          "internalType": "address",
          "name": "user",
          "type": "address"
        },
        {
          "internalType": "string",
          "name": "name",
          "type": "string"
        },
        {
          "internalType": "string",
          "name": "id",
          "type": "string"
        }
      ],
      "name": "addDoctor",
      "outputs": [],
      "stateMutability": "nonpayable",
      "type": "function"
    },
    {
      "inputs": [
        {
          "internalType": "address",
          "name": "user",
          "type": "address"
        },
        {
          "internalType": "string",
          "name": "name",
          "type": "string"
        },
        {
          "internalType": "string",
          "name": "id",
          "type": "string"
        }
      ],
      "name": "addNurse",
      "outputs": [],
      "stateMutability": "nonpayable",
      "type": "function"
    },
    {
      "inputs": [
        {
          "internalType": "address",
          "name": "user",
          "type": "address"
        },
        {
          "internalType": "string",
          "name": "name",
          "type": "string"
        },
        {
          "internalType": "string",
          "name": "id",
          "type": "string"
        }
      ],
      "name": "addPatient",
      "outputs": [],
      "stateMutability": "nonpayable",
      "type": "function"
    },
    {
      "inputs": [
        {
          "internalType": "address",
          "name": "user",
          "type": "address"
        },
        {
          "internalType": "string",
          "name": "name",
          "type": "string"
        },
        {
          "internalType": "string",
          "name": "id",
          "type": "string"
        }
      ],
      "name": "addReceptionist",
      "outputs": [],
      "stateMutability": "nonpayable",
      "type": "function"
    },
    {
      "inputs": [
        {
          "internalType": "string",
          "name": "ipfsHash",
          "type": "string"
        },
        {
          "internalType": "address",
          "name": "preferredDoctor",
          "type": "address"
        }
      ],
      "name": "addRecordWithPreference",
      "outputs": [],
      "stateMutability": "nonpayable",
      "type": "function"
    },
    {
      "inputs": [
        {
          "internalType": "address",
          "name": "",
          "type": "address"
        }
      ],
      "name": "adminDetails",
      "outputs": [
        {
          "internalType": "string",
          "name": "name",
          "type": "string"
        },
        {
          "internalType": "string",
          "name": "id",
          "type": "string"
        }
      ],
      "stateMutability": "view",
      "type": "function"
    },
    {
      "inputs": [
        {
          "internalType": "address",
          "name": "user",
          "type": "address"
        },
        {
          "internalType": "string",
          "name": "name",
          "type": "string"
        },
        {
          "internalType": "string",
          "name": "id",
          "type": "string"
        }
      ],
      "name": "completePatientRegistration",
      "outputs": [],
      "stateMutability": "nonpayable",
      "type": "function"
    },
    {
      "inputs": [
        {
          "internalType": "address",
          "name": "",
          "type": "address"
        }
      ],
      "name": "doctorDetails",
      "outputs": [
        {
          "internalType": "string",
          "name": "name",
          "type": "string"
        },
        {
          "internalType": "string",
          "name": "id",
          "type": "string"
        }
      ],
      "stateMutability": "view",
      "type": "function"
    },
    {
      "inputs": [
        {
          "internalType": "uint32",
          "name": "id",
          "type": "uint32"
        },
        {
          "internalType": "string",
          "name": "newIpfsHash",
          "type": "string"
        }
      ],
      "name": "editRecord",
      "outputs": [],
      "stateMutability": "nonpayable",
      "type": "function"
    },
    {
      "inputs": [
        {
          "internalType": "address",
          "name": "user",
          "type": "address"
        }
      ],
      "name": "getAdminDetails",
      "outputs": [
        {
          "internalType": "string",
          "name": "",
          "type": "string"
        },
        {
          "internalType": "string",
          "name": "",
          "type": "string"
        }
      ],
      "stateMutability": "view",
      "type": "function"
    },
    {
      "inputs": [],
      "name": "getAllUsers",
      "outputs": [
        {
          "internalType": "address[]",
          "name": "",
          "type": "address[]"
        }
      ],
      "stateMutability": "view",
      "type": "function"
    },
    {
      "inputs": [
        {
          "internalType": "uint256",
          "name": "index",
          "type": "uint256"
        }
      ],
      "name": "getDoctorByIndex",
      "outputs": [
        {
          "internalType": "address",
          "name": "",
          "type": "address"
        }
      ],
      "stateMutability": "view",
      "type": "function"
    },
    {
      "inputs": [],
      "name": "getDoctorCount",
      "outputs": [
        {
          "internalType": "uint256",
          "name": "",
          "type": "uint256"
        }
      ],
      "stateMutability": "view",
      "type": "function"
    },
    {
      "inputs": [
        {
          "internalType": "address",
          "name": "user",
          "type": "address"
        }
      ],
      "name": "getDoctorDetails",
      "outputs": [
        {
          "internalType": "string",
          "name": "",
          "type": "string"
        },
        {
          "internalType": "string",
          "name": "",
          "type": "string"
        }
      ],
      "stateMutability": "view",
      "type": "function"
    },
    {
      "inputs": [],
      "name": "getMyReferrals",
      "outputs": [
        {
          "components": [
            {
              "internalType": "address",
              "name": "fromDoctor",
              "type": "address"
            },
            {
              "internalType": "address",
              "name": "toDoctor",
              "type": "address"
            },
            {
              "internalType": "uint32",
              "name": "recordId",
              "type": "uint32"
            },
            {
              "internalType": "enum HospitalRecords.ReferralStatus",
              "name": "status",
              "type": "uint8"
            }
          ],
          "internalType": "struct HospitalRecords.Referral[]",
          "name": "",
          "type": "tuple[]"
        }
      ],
      "stateMutability": "view",
      "type": "function"
    },
    {
      "inputs": [
        {
          "internalType": "address",
          "name": "user",
          "type": "address"
        }
      ],
      "name": "getNurseDetails",
      "outputs": [
        {
          "internalType": "string",
          "name": "",
          "type": "string"
        },
        {
          "internalType": "string",
          "name": "",
          "type": "string"
        }
      ],
      "stateMutability": "view",
      "type": "function"
    },
    {
      "inputs": [
        {
          "internalType": "address",
          "name": "user",
          "type": "address"
        }
      ],
      "name": "getPatientDetails",
      "outputs": [
        {
          "internalType": "string",
          "name": "",
          "type": "string"
        },
        {
          "internalType": "string",
          "name": "",
          "type": "string"
        }
      ],
      "stateMutability": "view",
      "type": "function"
    },
    {
      "inputs": [
        {
          "internalType": "address",
          "name": "patient",
          "type": "address"
        }
      ],
      "name": "getPatientRecords",
      "outputs": [
        {
          "internalType": "uint32[]",
          "name": "",
          "type": "uint32[]"
        }
      ],
      "stateMutability": "view",
      "type": "function"
    },
    {
      "inputs": [
        {
          "internalType": "address",
          "name": "user",
          "type": "address"
        }
      ],
      "name": "getReceptionistDetails",
      "outputs": [
        {
          "internalType": "string",
          "name": "",
          "type": "string"
        },
        {
          "internalType": "string",
          "name": "",
          "type": "string"
        }
      ],
      "stateMutability": "view",
      "type": "function"
    },
    {
      "inputs": [
        {
          "internalType": "address",
          "name": "user",
          "type": "address"
        }
      ],
      "name": "getRole",
      "outputs": [
        {
          "internalType": "enum HospitalRecords.Role",
          "name": "",
          "type": "uint8"
        }
      ],
      "stateMutability": "view",
      "type": "function"
    },
    {
      "inputs": [
        {
          "internalType": "address",
          "name": "",
          "type": "address"
        }
      ],
      "name": "isRegisteredPatient",
      "outputs": [
        {
          "internalType": "bool",
          "name": "",
          "type": "bool"
        }
      ],
      "stateMutability": "view",
      "type": "function"
    },
    {
      "inputs": [
        {
          "internalType": "address",
          "name": "",
          "type": "address"
        }
      ],
      "name": "nurseDetails",
      "outputs": [
        {
          "internalType": "string",
          "name": "name",
          "type": "string"
        },
        {
          "internalType": "string",
          "name": "id",
          "type": "string"
        }
      ],
      "stateMutability": "view",
      "type": "function"
    },
    {
      "inputs": [
        {
          "internalType": "address",
          "name": "",
          "type": "address"
        }
      ],
      "name": "patientDetails",
      "outputs": [
        {
          "internalType": "string",
          "name": "name",
          "type": "string"
        },
        {
          "internalType": "string",
          "name": "id",
          "type": "string"
        }
      ],
      "stateMutability": "view",
      "type": "function"
    },
    {
      "inputs": [
        {
          "internalType": "address",
          "name": "",
          "type": "address"
        },
        {
          "internalType": "uint256",
          "name": "",
          "type": "uint256"
        }
      ],
      "name": "patientRecords",
      "outputs": [
        {
          "internalType": "uint32",
          "name": "",
          "type": "uint32"
        }
      ],
      "stateMutability": "view",
      "type": "function"
    },
    {
      "inputs": [
        {
          "internalType": "address",
          "name": "",
          "type": "address"
        }
      ],
      "name": "receptionistDetails",
      "outputs": [
        {
          "internalType": "string",
          "name": "name",
          "type": "string"
        },
        {
          "internalType": "string",
          "name": "id",
          "type": "string"
        }
      ],
      "stateMutability": "view",
      "type": "function"
    },
    {
      "inputs": [],
      "name": "recordCount",
      "outputs": [
        {
          "internalType": "uint32",
          "name": "",
          "type": "uint32"
        }
      ],
      "stateMutability": "view",
      "type": "function"
    },
    {
      "inputs": [
        {
          "internalType": "uint32",
          "name": "",
          "type": "uint32"
        }
      ],
      "name": "records",
      "outputs": [
        {
          "internalType": "uint32",
          "name": "id",
          "type": "uint32"
        },
        {
          "internalType": "string",
          "name": "ipfsHash",
          "type": "string"
        },
        {
          "internalType": "address",
          "name": "patient",
          "type": "address"
        },
        {
          "internalType": "address",
          "name": "assignedDoctor",
          "type": "address"
        }
      ],
      "stateMutability": "view",
      "type": "function"
    },
    {
      "inputs": [
        {
          "internalType": "uint32",
          "name": "recordId",
          "type": "uint32"
        },
        {
          "internalType": "address",
          "name": "toDoctor",
          "type": "address"
        }
      ],
      "name": "referToAnotherDoctor",
      "outputs": [],
      "stateMutability": "nonpayable",
      "type": "function"
    },
    {
      "inputs": [
        {
          "internalType": "address",
          "name": "",
          "type": "address"
        },
        {
          "internalType": "uint256",
          "name": "",
          "type": "uint256"
        }
      ],
      "name": "referrals",
      "outputs": [
        {
          "internalType": "address",
          "name": "fromDoctor",
          "type": "address"
        },
        {
          "internalType": "address",
          "name": "toDoctor",
          "type": "address"
        },
        {
          "internalType": "uint32",
          "name": "recordId",
          "type": "uint32"
        },
        {
          "internalType": "enum HospitalRecords.ReferralStatus",
          "name": "status",
          "type": "uint8"
        }
      ],
      "stateMutability": "view",
      "type": "function"
    },
    {
      "inputs": [
        {
          "internalType": "uint256",
          "name": "index",
          "type": "uint256"
        },
        {
          "internalType": "bool",
          "name": "accept",
          "type": "bool"
        }
      ],
      "name": "respondToReferral",
      "outputs": [],
      "stateMutability": "nonpayable",
      "type": "function"
    },
    {
      "inputs": [
        {
          "internalType": "address",
          "name": "",
          "type": "address"
        }
      ],
      "name": "roles",
      "outputs": [
        {
          "internalType": "enum HospitalRecords.Role",
          "name": "",
          "type": "uint8"
        }
      ],
      "stateMutability": "view",
      "type": "function"
    },
    {
      "inputs": [
        {
          "internalType": "uint32",
          "name": "id",
          "type": "uint32"
        }
      ],
      "name": "viewRecord",
      "outputs": [
        {
          "internalType": "string",
          "name": "",
          "type": "string"
        },
        {
          "internalType": "address",
          "name": "",
          "type": "address"
        }
      ],
      "stateMutability": "view",
      "type": "function"
    }
  ],
  "bytecode": "0x60806040523480156200001157600080fd5b506004600160003373ffffffffffffffffffffffffffffffffffffffff1673ffffffffffffffffffffffffffffffffffffffff16815260200190815260200160002060006101000a81548160ff0219169083600581111562000078576200007762000280565b5b021790555060405180604001604052806040518060400160405280600d81526020017f44656661756c742041646d696e0000000000000000000000000000000000000081525081526020016040518060400160405280600981526020017f61646d696e2d3030310000000000000000000000000000000000000000000000815250815250600c60003373ffffffffffffffffffffffffffffffffffffffff1673ffffffffffffffffffffffffffffffffffffffff168152602001908152602001600020600082015181600001908162000152919062000529565b5060208201518160010190816200016a919062000529565b509050506001600860003373ffffffffffffffffffffffffffffffffffffffff1673ffffffffffffffffffffffffffffffffffffffff16815260200190815260200160002060006101000a81548160ff0219169083151502179055506007339080600181540180825580915050600190039060005260206000200160009091909190916101000a81548173ffffffffffffffffffffffffffffffffffffffff021916908373ffffffffffffffffffffffffffffffffffffffff1602179055503373ffffffffffffffffffffffffffffffffffffffff167f4ac36fa53f167ceb85964be512e01de2a3b8bdb9862f917da079deeeff689b38600460405162000272919062000661565b60405180910390a26200067e565b7f4e487b7100000000000000000000000000000000000000000000000000000000600052602160045260246000fd5b600081519050919050565b7f4e487b7100000000000000000000000000000000000000000000000000000000600052604160045260246000fd5b7f4e487b7100000000000000000000000000000000000000000000000000000000600052602260045260246000fd5b600060028204905060018216806200033157607f821691505b602082108103620003475762000346620002e9565b5b50919050565b60008190508160005260206000209050919050565b60006020601f8301049050919050565b600082821b905092915050565b600060088302620003b17fffffffffffffffffffffffffffffffffffffffffffffffffffffffffffffffff8262000372565b620003bd868362000372565b95508019841693508086168417925050509392505050565b6000819050919050565b6000819050919050565b60006200040a62000404620003fe84620003d5565b620003df565b620003d5565b9050919050565b6000819050919050565b6200042683620003e9565b6200043e620004358262000411565b8484546200037f565b825550505050565b600090565b6200045562000446565b620004628184846200041b565b505050565b5b818110156200048a576200047e6000826200044b565b60018101905062000468565b5050565b601f821115620004d957620004a3816200034d565b620004ae8462000362565b81016020851015620004be578190505b620004d6620004cd8562000362565b83018262000467565b50505b505050565b600082821c905092915050565b6000620004fe60001984600802620004de565b1980831691505092915050565b6000620005198383620004eb565b9150826002028217905092915050565b6200053482620002af565b67ffffffffffffffff81111562000550576200054f620002ba565b5b6200055c825462000318565b620005698282856200048e565b600060209050601f831160018114620005a157600084156200058c578287015190505b6200059885826200050b565b86555062000608565b601f198416620005b1866200034d565b60005b82811015620005db57848901518255600182019150602085019450602081019050620005b4565b86831015620005fb5784890151620005f7601f891682620004eb565b8355505b6001600288020188555050505b505050505050565b6006811062000624576200062362000280565b5b50565b6000819050620006378262000610565b919050565b6000620006498262000627565b9050919050565b6200065b816200063c565b82525050565b600060208201905062000678600083018462000650565b92915050565b6159fd806200068e6000396000f3fe608060405234801561001057600080fd5b50600436106101fb5760003560e01c8063853ac8dd1161011a578063b81b70e9116100ad578063e2842d791161007c578063e2842d7914610662578063e65f063a14610680578063e697b5d81461069c578063efe2ccc1146106cf578063f695a44d14610700576101fb565b8063b81b70e9146105c8578063bab90dbd146105e4578063cc49a08714610615578063d6eb4d5014610631576101fb565b806390f65ec0116100e957806390f65ec01461051b57806394f0df61146105375780639937464214610567578063a4fd4be314610597576101fb565b8063853ac8dd1461049457806385ab778c146104b057806389c5c43f146104cc578063900407bc146104fd576101fb565b80633bd29d69116101925780635a357c19116101615780635a357c191461040c5780635babf5ef1461043c578063656491661461045857806379111c1c14610476576101fb565b80633bd29d69146103485780633c4f7a9d1461037b57806344276733146103ab5780634f5f9a18146103db576101fb565b80632f2d4786116101ce5780632f2d4786146102c35780633239515e146102f457806334b789981461031057806337b16b501461032c576101fb565b806310c5f0251461020057806318bd4847146102315780631afecb2d146102615780632ed226ad14610292575b600080fd5b61021a600480360381019061021591906143c2565b610731565b60405161022892919061447f565b60405180910390f35b61024b600480360381019061024691906143c2565b610865565b6040516102589190614584565b60405180910390f35b61027b600480360381019061027691906145d2565b610928565b60405161028992919061460e565b60405180910390f35b6102ac60048036038101906102a791906143c2565b610b84565b6040516102ba92919061447f565b60405180910390f35b6102dd60048036038101906102d891906143c2565b610cb8565b6040516102eb92919061447f565b60405180910390f35b61030e60048036038101906103099190614773565b610dec565b005b61032a60048036038101906103259190614773565b610f78565b005b61034660048036038101906103419190614773565b611105565b005b610362600480360381019061035d91906145d2565b611292565b604051610372949392919061480d565b60405180910390f35b610395600480360381019061039091906143c2565b61139a565b6040516103a29190614874565b60405180910390f35b6103c560048036038101906103c091906143c2565b6113ba565b6040516103d29190614906565b60405180910390f35b6103f560048036038101906103f091906143c2565b611410565b60405161040392919061447f565b60405180910390f35b61042660048036038101906104219190614957565b611544565b6040516104339190614984565b60405180910390f35b61045660048036038101906104519190614773565b6115d3565b005b610460611760565b60405161046d9190614afa565b60405180910390f35b61047e6119be565b60405161048b9190614b2b565b60405180910390f35b6104ae60048036038101906104a99190614773565b6119cb565b005b6104ca60048036038101906104c59190614b46565b611b58565b005b6104e660048036038101906104e191906143c2565b611fee565b6040516104f492919061447f565b60405180910390f35b61050561222a565b6040516105129190614b86565b60405180910390f35b61053560048036038101906105309190614ba1565b61223e565b005b610551600480360381019061054c9190614bfd565b612459565b60405161055e9190614b86565b60405180910390f35b610581600480360381019061057c91906143c2565b6124a2565b60405161058e9190614906565b60405180910390f35b6105b160048036038101906105ac91906143c2565b6124c2565b6040516105bf92919061447f565b60405180910390f35b6105e260048036038101906105dd9190614c69565b6126fe565b005b6105fe60048036038101906105f991906143c2565b612a51565b60405161060c92919061447f565b60405180910390f35b61062f600480360381019061062a9190614ca9565b612c8d565b005b61064b600480360381019061064691906143c2565b612fc8565b60405161065992919061447f565b60405180910390f35b61066a6130fc565b6040516106779190614db4565b60405180910390f35b61069a60048036038101906106959190614773565b61318a565b005b6106b660048036038101906106b19190614bfd565b61337a565b6040516106c69493929190614de5565b60405180910390f35b6106e960048036038101906106e491906143c2565b613424565b6040516106f792919061447f565b60405180910390f35b61071a600480360381019061071591906143c2565b613660565b60405161072892919061447f565b60405180910390f35b600a60205280600052604060002060009150905080600001805461075490614e59565b80601f016020809104026020016040519081016040528092919081815260200182805461078090614e59565b80156107cd5780601f106107a2576101008083540402835291602001916107cd565b820191906000526020600020905b8154815290600101906020018083116107b057829003601f168201915b5050505050908060010180546107e290614e59565b80601f016020809104026020016040519081016040528092919081815260200182805461080e90614e59565b801561085b5780601f106108305761010080835404028352916020019161085b565b820191906000526020600020905b81548152906001019060200180831161083e57829003601f168201915b5050505050905082565b6060600360008373ffffffffffffffffffffffffffffffffffffffff1673ffffffffffffffffffffffffffffffffffffffff16815260200190815260200160002080548060200260200160405190810160405280929190818152602001828054801561091c57602002820191906000526020600020906000905b82829054906101000a900463ffffffff1663ffffffff16815260200190600401906020826003010492830192600103820291508084116108df5790505b50505050509050919050565b6060600080600581111561093f5761093e61488f565b5b600160003373ffffffffffffffffffffffffffffffffffffffff1673ffffffffffffffffffffffffffffffffffffffff16815260200190815260200160002060009054906101000a900460ff16600581111561099e5761099d61488f565b5b036109de576040517f08c379a00000000000000000000000000000000000000000000000000000000081526004016109d590614ed6565b60405180910390fd5b6000600260008563ffffffff1663ffffffff1681526020019081526020016000206040518060800160405290816000820160009054906101000a900463ffffffff1663ffffffff1663ffffffff168152602001600182018054610a4090614e59565b80601f0160208091040260200160405190810160405280929190818152602001828054610a6c90614e59565b8015610ab95780601f10610a8e57610100808354040283529160200191610ab9565b820191906000526020600020905b815481529060010190602001808311610a9c57829003601f168201915b505050505081526020016002820160009054906101000a900473ffffffffffffffffffffffffffffffffffffffff1673ffffffffffffffffffffffffffffffffffffffff1673ffffffffffffffffffffffffffffffffffffffff1681526020016003820160009054906101000a900473ffffffffffffffffffffffffffffffffffffffff1673ffffffffffffffffffffffffffffffffffffffff1673ffffffffffffffffffffffffffffffffffffffff16815250509050806020015181606001519250925050915091565b6009602052806000526040600020600091509050806000018054610ba790614e59565b80601f0160208091040260200160405190810160405280929190818152602001828054610bd390614e59565b8015610c205780601f10610bf557610100808354040283529160200191610c20565b820191906000526020600020905b815481529060010190602001808311610c0357829003601f168201915b505050505090806001018054610c3590614e59565b80601f0160208091040260200160405190810160405280929190818152602001828054610c6190614e59565b8015610cae5780601f10610c8357610100808354040283529160200191610cae565b820191906000526020600020905b815481529060010190602001808311610c9157829003601f168201915b5050505050905082565b600c602052806000526040600020600091509050806000018054610cdb90614e59565b80601f0160208091040260200160405190810160405280929190818152602001828054610d0790614e59565b8015610d545780601f10610d2957610100808354040283529160200191610d54565b820191906000526020600020905b815481529060010190602001808311610d3757829003601f168201915b505050505090806001018054610d6990614e59565b80601f0160208091040260200160405190810160405280929190818152602001828054610d9590614e59565b8015610de25780601f10610db757610100808354040283529160200191610de2565b820191906000526020600020905b815481529060010190602001808311610dc557829003601f168201915b5050505050905082565b6004806005811115610e0157610e0061488f565b5b600160003373ffffffffffffffffffffffffffffffffffffffff1673ffffffffffffffffffffffffffffffffffffffff16815260200190815260200160002060009054906101000a900460ff166005811115610e6057610e5f61488f565b5b14610ea0576040517f08c379a0000000000000000000000000000000000000000000000000000000008152600401610e9790614ed6565b60405180910390fd5b600580811115610eb357610eb261488f565b5b600160008673ffffffffffffffffffffffffffffffffffffffff1673ffffffffffffffffffffffffffffffffffffffff16815260200190815260200160002060009054906101000a900460ff166005811115610f1257610f1161488f565b5b03610f52576040517f08c379a0000000000000000000000000000000000000000000000000000000008152600401610f4990614f42565b60405180910390fd5b610f7284600560405180604001604052808781526020018681525061389b565b50505050565b6004806005811115610f8d57610f8c61488f565b5b600160003373ffffffffffffffffffffffffffffffffffffffff1673ffffffffffffffffffffffffffffffffffffffff16815260200190815260200160002060009054906101000a900460ff166005811115610fec57610feb61488f565b5b1461102c576040517f08c379a000000000000000000000000000000000000000000000000000000000815260040161102390614ed6565b60405180910390fd5b600360058111156110405761103f61488f565b5b600160008673ffffffffffffffffffffffffffffffffffffffff1673ffffffffffffffffffffffffffffffffffffffff16815260200190815260200160002060009054906101000a900460ff16600581111561109f5761109e61488f565b5b036110df576040517f08c379a00000000000000000000000000000000000000000000000000000000081526004016110d690614fae565b60405180910390fd5b6110ff84600360405180604001604052808781526020018681525061389b565b50505050565b600580600581111561111a5761111961488f565b5b600160003373ffffffffffffffffffffffffffffffffffffffff1673ffffffffffffffffffffffffffffffffffffffff16815260200190815260200160002060009054906101000a900460ff1660058111156111795761117861488f565b5b146111b9576040517f08c379a00000000000000000000000000000000000000000000000000000000081526004016111b090614ed6565b60405180910390fd5b600160058111156111cd576111cc61488f565b5b600160008673ffffffffffffffffffffffffffffffffffffffff1673ffffffffffffffffffffffffffffffffffffffff16815260200190815260200160002060009054906101000a900460ff16600581111561122c5761122b61488f565b5b0361126c576040517f08c379a00000000000000000000000000000000000000000000000000000000081526004016112639061501a565b60405180910390fd5b61128c84600160405180604001604052808781526020018681525061389b565b50505050565b60026020528060005260406000206000915090508060000160009054906101000a900463ffffffff16908060010180546112cb90614e59565b80601f01602080910402602001604051908101604052809291908181526020018280546112f790614e59565b80156113445780601f1061131957610100808354040283529160200191611344565b820191906000526020600020905b81548152906001019060200180831161132757829003601f168201915b5050505050908060020160009054906101000a900473ffffffffffffffffffffffffffffffffffffffff16908060030160009054906101000a900473ffffffffffffffffffffffffffffffffffffffff16905084565b60056020528060005260406000206000915054906101000a900460ff1681565b6000600160008373ffffffffffffffffffffffffffffffffffffffff1673ffffffffffffffffffffffffffffffffffffffff16815260200190815260200160002060009054906101000a900460ff169050919050565b600d60205280600052604060002060009150905080600001805461143390614e59565b80601f016020809104026020016040519081016040528092919081815260200182805461145f90614e59565b80156114ac5780601f10611481576101008083540402835291602001916114ac565b820191906000526020600020905b81548152906001019060200180831161148f57829003601f168201915b5050505050908060010180546114c190614e59565b80601f01602080910402602001604051908101604052809291908181526020018280546114ed90614e59565b801561153a5780601f1061150f5761010080835404028352916020019161153a565b820191906000526020600020905b81548152906001019060200180831161151d57829003601f168201915b5050505050905082565b6000600680549050821061158d576040517f08c379a000000000000000000000000000000000000000000000000000000000815260040161158490615086565b60405180910390fd5b600682815481106115a1576115a06150a6565b5b9060005260206000200160009054906101000a900473ffffffffffffffffffffffffffffffffffffffff169050919050565b60048060058111156115e8576115e761488f565b5b600160003373ffffffffffffffffffffffffffffffffffffffff1673ffffffffffffffffffffffffffffffffffffffff16815260200190815260200160002060009054906101000a900460ff1660058111156116475761164661488f565b5b14611687576040517f08c379a000000000000000000000000000000000000000000000000000000000815260040161167e90614ed6565b60405180910390fd5b6004600581111561169b5761169a61488f565b5b600160008673ffffffffffffffffffffffffffffffffffffffff1673ffffffffffffffffffffffffffffffffffffffff16815260200190815260200160002060009054906101000a900460ff1660058111156116fa576116f961488f565b5b0361173a576040517f08c379a000000000000000000000000000000000000000000000000000000000815260040161173190615121565b60405180910390fd5b61175a84600460405180604001604052808781526020018681525061389b565b50505050565b606060018060058111156117775761177661488f565b5b600160003373ffffffffffffffffffffffffffffffffffffffff1673ffffffffffffffffffffffffffffffffffffffff16815260200190815260200160002060009054906101000a900460ff1660058111156117d6576117d561488f565b5b14611816576040517f08c379a000000000000000000000000000000000000000000000000000000000815260040161180d90614ed6565b60405180910390fd5b600460003373ffffffffffffffffffffffffffffffffffffffff1673ffffffffffffffffffffffffffffffffffffffff168152602001908152602001600020805480602002602001604051908101604052809291908181526020016000905b828210156119b457838290600052602060002090600202016040518060800160405290816000820160009054906101000a900473ffffffffffffffffffffffffffffffffffffffff1673ffffffffffffffffffffffffffffffffffffffff1673ffffffffffffffffffffffffffffffffffffffff1681526020016001820160009054906101000a900473ffffffffffffffffffffffffffffffffffffffff1673ffffffffffffffffffffffffffffffffffffffff1673ffffffffffffffffffffffffffffffffffffffff1681526020016001820160149054906101000a900463ffffffff1663ffffffff1663ffffffff1681526020016001820160189054906101000a900460ff16600281111561198f5761198e61488f565b5b60028111156119a1576119a061488f565b5b8152505081526020019060010190611875565b5050505091505090565b6000600680549050905090565b60048060058111156119e0576119df61488f565b5b600160003373ffffffffffffffffffffffffffffffffffffffff1673ffffffffffffffffffffffffffffffffffffffff16815260200190815260200160002060009054906101000a900460ff166005811115611a3f57611a3e61488f565b5b14611a7f576040517f08c379a0000000000000000000000000000000000000000000000000000000008152600401611a7690614ed6565b60405180910390fd5b60026005811115611a9357611a9261488f565b5b600160008673ffffffffffffffffffffffffffffffffffffffff1673ffffffffffffffffffffffffffffffffffffffff16815260200190815260200160002060009054906101000a900460ff166005811115611af257611af161488f565b5b03611b32576040517f08c379a0000000000000000000000000000000000000000000000000000000008152600401611b299061518d565b60405180910390fd5b611b5284600260405180604001604052808781526020018681525061389b565b50505050565b6003806005811115611b6d57611b6c61488f565b5b600160003373ffffffffffffffffffffffffffffffffffffffff1673ffffffffffffffffffffffffffffffffffffffff16815260200190815260200160002060009054906101000a900460ff166005811115611bcc57611bcb61488f565b5b14611c0c576040517f08c379a0000000000000000000000000000000000000000000000000000000008152600401611c0390614ed6565b60405180910390fd5b600073ffffffffffffffffffffffffffffffffffffffff16600260008563ffffffff1663ffffffff16815260200190815260200160002060020160009054906101000a900473ffffffffffffffffffffffffffffffffffffffff1673ffffffffffffffffffffffffffffffffffffffff1603611cbd576040517f08c379a0000000000000000000000000000000000000000000000000000000008152600401611cb4906151f9565b60405180910390fd5b60036005811115611cd157611cd061488f565b5b600160008473ffffffffffffffffffffffffffffffffffffffff1673ffffffffffffffffffffffffffffffffffffffff16815260200190815260200160002060009054906101000a900460ff166005811115611d3057611d2f61488f565b5b14611d70576040517f08c379a0000000000000000000000000000000000000000000000000000000008152600401611d6790615265565b60405180910390fd5b6000600260008563ffffffff1663ffffffff16815260200190815260200160002060020160009054906101000a900473ffffffffffffffffffffffffffffffffffffffff169050600460008273ffffffffffffffffffffffffffffffffffffffff1673ffffffffffffffffffffffffffffffffffffffff16815260200190815260200160002060405180608001604052803373ffffffffffffffffffffffffffffffffffffffff1681526020018573ffffffffffffffffffffffffffffffffffffffff1681526020018663ffffffff16815260200160006002811115611e5957611e5861488f565b5b815250908060018154018082558091505060019003906000526020600020906002020160009091909190915060008201518160000160006101000a81548173ffffffffffffffffffffffffffffffffffffffff021916908373ffffffffffffffffffffffffffffffffffffffff16021790555060208201518160010160006101000a81548173ffffffffffffffffffffffffffffffffffffffff021916908373ffffffffffffffffffffffffffffffffffffffff16021790555060408201518160010160146101000a81548163ffffffff021916908363ffffffff16021790555060608201518160010160186101000a81548160ff02191690836002811115611f6557611f6461488f565b5b021790555050508273ffffffffffffffffffffffffffffffffffffffff163373ffffffffffffffffffffffffffffffffffffffff168273ffffffffffffffffffffffffffffffffffffffff167f954f56149b3fe3faace07382cb6e9c96171fd4d04f649f5c2b3d2b05767f443687604051611fe09190614b86565b60405180910390a450505050565b606080600460058111156120055761200461488f565b5b600160008573ffffffffffffffffffffffffffffffffffffffff1673ffffffffffffffffffffffffffffffffffffffff16815260200190815260200160002060009054906101000a900460ff1660058111156120645761206361488f565b5b146120a4576040517f08c379a000000000000000000000000000000000000000000000000000000000815260040161209b906152d1565b60405180910390fd5b6000600c60008573ffffffffffffffffffffffffffffffffffffffff1673ffffffffffffffffffffffffffffffffffffffff16815260200190815260200160002060405180604001604052908160008201805461210090614e59565b80601f016020809104026020016040519081016040528092919081815260200182805461212c90614e59565b80156121795780601f1061214e57610100808354040283529160200191612179565b820191906000526020600020905b81548152906001019060200180831161215c57829003601f168201915b5050505050815260200160018201805461219290614e59565b80601f01602080910402602001604051908101604052809291908181526020018280546121be90614e59565b801561220b5780601f106121e05761010080835404028352916020019161220b565b820191906000526020600020905b8154815290600101906020018083116121ee57829003601f168201915b5050505050815250509050806000015181602001519250925050915091565b60008054906101000a900463ffffffff1681565b81600360058111156122535761225261488f565b5b600160003373ffffffffffffffffffffffffffffffffffffffff1673ffffffffffffffffffffffffffffffffffffffff16815260200190815260200160002060009054906101000a900460ff1660058111156122b2576122b161488f565b5b14806123a75750600260058111156122cd576122cc61488f565b5b600160003373ffffffffffffffffffffffffffffffffffffffff1673ffffffffffffffffffffffffffffffffffffffff16815260200190815260200160002060009054906101000a900460ff16600581111561232c5761232b61488f565b5b1480156123a657503373ffffffffffffffffffffffffffffffffffffffff16600260008363ffffffff1663ffffffff16815260200190815260200160002060020160009054906101000a900473ffffffffffffffffffffffffffffffffffffffff1673ffffffffffffffffffffffffffffffffffffffff16145b5b6123e6576040517f08c379a00000000000000000000000000000000000000000000000000000000081526004016123dd9061533d565b60405180910390fd5b81600260008563ffffffff1663ffffffff16815260200190815260200160002060010190816124159190615509565b508263ffffffff167f443467e367e7f480b51b97f7fcc3657cf13ad722268cfe3880332489751e7e9a8360405161244c91906155db565b60405180910390a2505050565b6003602052816000526040600020818154811061247557600080fd5b9060005260206000209060089182820401919006600402915091509054906101000a900463ffffffff1681565b60016020528060005260406000206000915054906101000a900460ff1681565b606080600260058111156124d9576124d861488f565b5b600160008573ffffffffffffffffffffffffffffffffffffffff1673ffffffffffffffffffffffffffffffffffffffff16815260200190815260200160002060009054906101000a900460ff1660058111156125385761253761488f565b5b14612578576040517f08c379a000000000000000000000000000000000000000000000000000000000815260040161256f90615649565b60405180910390fd5b6000600b60008573ffffffffffffffffffffffffffffffffffffffff1673ffffffffffffffffffffffffffffffffffffffff1681526020019081526020016000206040518060400160405290816000820180546125d490614e59565b80601f016020809104026020016040519081016040528092919081815260200182805461260090614e59565b801561264d5780601f106126225761010080835404028352916020019161264d565b820191906000526020600020905b81548152906001019060200180831161263057829003601f168201915b5050505050815260200160018201805461266690614e59565b80601f016020809104026020016040519081016040528092919081815260200182805461269290614e59565b80156126df5780601f106126b4576101008083540402835291602001916126df565b820191906000526020600020905b8154815290600101906020018083116126c257829003601f168201915b5050505050815250509050806000015181602001519250925050915091565b60018060058111156127135761271261488f565b5b600160003373ffffffffffffffffffffffffffffffffffffffff1673ffffffffffffffffffffffffffffffffffffffff16815260200190815260200160002060009054906101000a900460ff1660058111156127725761277161488f565b5b146127b2576040517f08c379a00000000000000000000000000000000000000000000000000000000081526004016127a990614ed6565b60405180910390fd5b600460003373ffffffffffffffffffffffffffffffffffffffff1673ffffffffffffffffffffffffffffffffffffffff168152602001908152602001600020805490508310612836576040517f08c379a000000000000000000000000000000000000000000000000000000000815260040161282d906156b5565b60405180910390fd5b6000600460003373ffffffffffffffffffffffffffffffffffffffff1673ffffffffffffffffffffffffffffffffffffffff1681526020019081526020016000208481548110612889576128886150a6565b5b90600052602060002090600202019050600060028111156128ad576128ac61488f565b5b8160010160189054906101000a900460ff1660028111156128d1576128d061488f565b5b14612911576040517f08c379a000000000000000000000000000000000000000000000000000000000815260040161290890615721565b60405180910390fd5b8261291d576002612920565b60015b8160010160186101000a81548160ff021916908360028111156129465761294561488f565b5b021790555082156129eb578060010160009054906101000a900473ffffffffffffffffffffffffffffffffffffffff16600260008360010160149054906101000a900463ffffffff1663ffffffff1663ffffffff16815260200190815260200160002060030160006101000a81548173ffffffffffffffffffffffffffffffffffffffff021916908373ffffffffffffffffffffffffffffffffffffffff1602179055505b833373ffffffffffffffffffffffffffffffffffffffff167f3d0157b8d9080bad6084e5ddf4b3d9ed97bbead59eff457eee9f55cf4e87972f8360010160189054906101000a900460ff16604051612a439190615741565b60405180910390a350505050565b60608060036005811115612a6857612a6761488f565b5b600160008573ffffffffffffffffffffffffffffffffffffffff1673ffffffffffffffffffffffffffffffffffffffff16815260200190815260200160002060009054906101000a900460ff166005811115612ac757612ac661488f565b5b14612b07576040517f08c379a0000000000000000000000000000000000000000000000000000000008152600401612afe906157a8565b60405180910390fd5b6000600960008573ffffffffffffffffffffffffffffffffffffffff1673ffffffffffffffffffffffffffffffffffffffff168152602001908152602001600020604051806040016040529081600082018054612b6390614e59565b80601f0160208091040260200160405190810160405280929190818152602001828054612b8f90614e59565b8015612bdc5780601f10612bb157610100808354040283529160200191612bdc565b820191906000526020600020905b815481529060010190602001808311612bbf57829003601f168201915b50505050508152602001600182018054612bf590614e59565b80601f0160208091040260200160405190810160405280929190818152602001828054612c2190614e59565b8015612c6e5780601f10612c4357610100808354040283529160200191612c6e565b820191906000526020600020905b815481529060010190602001808311612c5157829003601f168201915b5050505050815250509050806000015181602001519250925050915091565b612c9633613e3c565b60008073ffffffffffffffffffffffffffffffffffffffff168273ffffffffffffffffffffffffffffffffffffffff161480612d43575060036005811115612ce157612ce061488f565b5b600160008473ffffffffffffffffffffffffffffffffffffffff1673ffffffffffffffffffffffffffffffffffffffff16815260200190815260200160002060009054906101000a900460ff166005811115612d4057612d3f61488f565b5b14155b612d4d5781612d56565b612d55614269565b5b9050600080600081819054906101000a900463ffffffff16612d77906157f7565b91906101000a81548163ffffffff021916908363ffffffff1602179055905060405180608001604052808263ffffffff1681526020018581526020013373ffffffffffffffffffffffffffffffffffffffff1681526020018373ffffffffffffffffffffffffffffffffffffffff16815250600260008363ffffffff1663ffffffff16815260200190815260200160002060008201518160000160006101000a81548163ffffffff021916908363ffffffff1602179055506020820151816001019081612e449190615509565b5060408201518160020160006101000a81548173ffffffffffffffffffffffffffffffffffffffff021916908373ffffffffffffffffffffffffffffffffffffffff16021790555060608201518160030160006101000a81548173ffffffffffffffffffffffffffffffffffffffff021916908373ffffffffffffffffffffffffffffffffffffffff160217905550905050600360003373ffffffffffffffffffffffffffffffffffffffff1673ffffffffffffffffffffffffffffffffffffffff1681526020019081526020016000208190806001815401808255809150506001900390600052602060002090600891828204019190066004029091909190916101000a81548163ffffffff021916908363ffffffff1602179055503373ffffffffffffffffffffffffffffffffffffffff168273ffffffffffffffffffffffffffffffffffffffff168263ffffffff167fb1fae238e52fde1dd2a92774df34bbc073a1692f76255f5a13064ced5a1f44c260405160405180910390a450505050565b600b602052806000526040600020600091509050806000018054612feb90614e59565b80601f016020809104026020016040519081016040528092919081815260200182805461301790614e59565b80156130645780601f1061303957610100808354040283529160200191613064565b820191906000526020600020905b81548152906001019060200180831161304757829003601f168201915b50505050509080600101805461307990614e59565b80601f01602080910402602001604051908101604052809291908181526020018280546130a590614e59565b80156130f25780601f106130c7576101008083540402835291602001916130f2565b820191906000526020600020905b8154815290600101906020018083116130d557829003601f168201915b5050505050905082565b6060600780548060200260200160405190810160405280929190818152602001828054801561318057602002820191906000526020600020905b8160009054906101000a900473ffffffffffffffffffffffffffffffffffffffff1673ffffffffffffffffffffffffffffffffffffffff1681526020019060010190808311613136575b5050505050905090565b600580600581111561319f5761319e61488f565b5b600160003373ffffffffffffffffffffffffffffffffffffffff1673ffffffffffffffffffffffffffffffffffffffff16815260200190815260200160002060009054906101000a900460ff1660058111156131fe576131fd61488f565b5b1461323e576040517f08c379a000000000000000000000000000000000000000000000000000000000815260040161323590614ed6565b60405180910390fd5b600160058111156132525761325161488f565b5b600160008673ffffffffffffffffffffffffffffffffffffffff1673ffffffffffffffffffffffffffffffffffffffff16815260200190815260200160002060009054906101000a900460ff1660058111156132b1576132b061488f565b5b146132f1576040517f08c379a00000000000000000000000000000000000000000000000000000000081526004016132e89061586f565b60405180910390fd5b604051806040016040528084815260200183815250600a60008673ffffffffffffffffffffffffffffffffffffffff1673ffffffffffffffffffffffffffffffffffffffff168152602001908152602001600020600082015181600001908161335a9190615509565b5060208201518160010190816133709190615509565b5090505050505050565b6004602052816000526040600020818154811061339657600080fd5b9060005260206000209060020201600091509150508060000160009054906101000a900473ffffffffffffffffffffffffffffffffffffffff16908060010160009054906101000a900473ffffffffffffffffffffffffffffffffffffffff16908060010160149054906101000a900463ffffffff16908060010160189054906101000a900460ff16905084565b6060806001600581111561343b5761343a61488f565b5b600160008573ffffffffffffffffffffffffffffffffffffffff1673ffffffffffffffffffffffffffffffffffffffff16815260200190815260200160002060009054906101000a900460ff16600581111561349a5761349961488f565b5b146134da576040517f08c379a00000000000000000000000000000000000000000000000000000000081526004016134d19061586f565b60405180910390fd5b6000600a60008573ffffffffffffffffffffffffffffffffffffffff1673ffffffffffffffffffffffffffffffffffffffff16815260200190815260200160002060405180604001604052908160008201805461353690614e59565b80601f016020809104026020016040519081016040528092919081815260200182805461356290614e59565b80156135af5780601f10613584576101008083540402835291602001916135af565b820191906000526020600020905b81548152906001019060200180831161359257829003601f168201915b505050505081526020016001820180546135c890614e59565b80601f01602080910402602001604051908101604052809291908181526020018280546135f490614e59565b80156136415780601f1061361657610100808354040283529160200191613641565b820191906000526020600020905b81548152906001019060200180831161362457829003601f168201915b5050505050815250509050806000015181602001519250925050915091565b6060806005808111156136765761367561488f565b5b600160008573ffffffffffffffffffffffffffffffffffffffff1673ffffffffffffffffffffffffffffffffffffffff16815260200190815260200160002060009054906101000a900460ff1660058111156136d5576136d461488f565b5b14613715576040517f08c379a000000000000000000000000000000000000000000000000000000000815260040161370c906158db565b60405180910390fd5b6000600d60008573ffffffffffffffffffffffffffffffffffffffff1673ffffffffffffffffffffffffffffffffffffffff16815260200190815260200160002060405180604001604052908160008201805461377190614e59565b80601f016020809104026020016040519081016040528092919081815260200182805461379d90614e59565b80156137ea5780601f106137bf576101008083540402835291602001916137ea565b820191906000526020600020905b8154815290600101906020018083116137cd57829003601f168201915b5050505050815260200160018201805461380390614e59565b80601f016020809104026020016040519081016040528092919081815260200182805461382f90614e59565b801561387c5780601f106138515761010080835404028352916020019161387c565b820191906000526020600020905b81548152906001019060200180831161385f57829003601f168201915b5050505050815250509050806000015181602001519250925050915091565b81600160008573ffffffffffffffffffffffffffffffffffffffff1673ffffffffffffffffffffffffffffffffffffffff16815260200190815260200160002060006101000a81548160ff021916908360058111156138fd576138fc61488f565b5b02179055508273ffffffffffffffffffffffffffffffffffffffff167f4ac36fa53f167ceb85964be512e01de2a3b8bdb9862f917da079deeeff689b38836040516139489190614906565b60405180910390a2600860008473ffffffffffffffffffffffffffffffffffffffff1673ffffffffffffffffffffffffffffffffffffffff16815260200190815260200160002060009054906101000a900460ff16613a5d576007839080600181540180825580915050600190039060005260206000200160009091909190916101000a81548173ffffffffffffffffffffffffffffffffffffffff021916908373ffffffffffffffffffffffffffffffffffffffff1602179055506001600860008573ffffffffffffffffffffffffffffffffffffffff1673ffffffffffffffffffffffffffffffffffffffff16815260200190815260200160002060006101000a81548160ff0219169083151502179055505b60036005811115613a7157613a7061488f565b5b826005811115613a8457613a8361488f565b5b03613b60576006839080600181540180825580915050600190039060005260206000200160009091909190916101000a81548173ffffffffffffffffffffffffffffffffffffffff021916908373ffffffffffffffffffffffffffffffffffffffff16021790555080600960008573ffffffffffffffffffffffffffffffffffffffff1673ffffffffffffffffffffffffffffffffffffffff1681526020019081526020016000206000820151816000019081613b419190615509565b506020820151816001019081613b579190615509565b50905050613e37565b60016005811115613b7457613b7361488f565b5b826005811115613b8757613b8661488f565b5b03613c58576001600560008573ffffffffffffffffffffffffffffffffffffffff1673ffffffffffffffffffffffffffffffffffffffff16815260200190815260200160002060006101000a81548160ff02191690831515021790555080600a60008573ffffffffffffffffffffffffffffffffffffffff1673ffffffffffffffffffffffffffffffffffffffff1681526020019081526020016000206000820151816000019081613c399190615509565b506020820151816001019081613c4f9190615509565b50905050613e36565b60026005811115613c6c57613c6b61488f565b5b826005811115613c7f57613c7e61488f565b5b03613cf85780600b60008573ffffffffffffffffffffffffffffffffffffffff1673ffffffffffffffffffffffffffffffffffffffff1681526020019081526020016000206000820151816000019081613cd99190615509565b506020820151816001019081613cef9190615509565b50905050613e35565b60046005811115613d0c57613d0b61488f565b5b826005811115613d1f57613d1e61488f565b5b03613d985780600c60008573ffffffffffffffffffffffffffffffffffffffff1673ffffffffffffffffffffffffffffffffffffffff1681526020019081526020016000206000820151816000019081613d799190615509565b506020820151816001019081613d8f9190615509565b50905050613e34565b600580811115613dab57613daa61488f565b5b826005811115613dbe57613dbd61488f565b5b03613e335780600d60008573ffffffffffffffffffffffffffffffffffffffff1673ffffffffffffffffffffffffffffffffffffffff1681526020019081526020016000206000820151816000019081613e189190615509565b506020820151816001019081613e2e9190615509565b509050505b5b5b5b5b505050565b60006005811115613e5057613e4f61488f565b5b600160008373ffffffffffffffffffffffffffffffffffffffff1673ffffffffffffffffffffffffffffffffffffffff16815260200190815260200160002060009054906101000a900460ff166005811115613eaf57613eae61488f565b5b03613f6b5760018060008373ffffffffffffffffffffffffffffffffffffffff1673ffffffffffffffffffffffffffffffffffffffff16815260200190815260200160002060006101000a81548160ff02191690836005811115613f1657613f1561488f565b5b02179055508073ffffffffffffffffffffffffffffffffffffffff167f4ac36fa53f167ceb85964be512e01de2a3b8bdb9862f917da079deeeff689b386001604051613f629190614906565b60405180910390a25b600560008273ffffffffffffffffffffffffffffffffffffffff1673ffffffffffffffffffffffffffffffffffffffff16815260200190815260200160002060009054906101000a900460ff16614266576001600560008373ffffffffffffffffffffffffffffffffffffffff1673ffffffffffffffffffffffffffffffffffffffff16815260200190815260200160002060006101000a81548160ff021916908315150217905550600860008273ffffffffffffffffffffffffffffffffffffffff1673ffffffffffffffffffffffffffffffffffffffff16815260200190815260200160002060009054906101000a900460ff16614121576007819080600181540180825580915050600190039060005260206000200160009091909190916101000a81548173ffffffffffffffffffffffffffffffffffffffff021916908373ffffffffffffffffffffffffffffffffffffffff1602179055506001600860008373ffffffffffffffffffffffffffffffffffffffff1673ffffffffffffffffffffffffffffffffffffffff16815260200190815260200160002060006101000a81548160ff0219169083151502179055505b6000600a60008373ffffffffffffffffffffffffffffffffffffffff1673ffffffffffffffffffffffffffffffffffffffff168152602001908152602001600020600101805461417090614e59565b9050036142655760405180604001604052806040518060400160405280600e81526020017f4175746f5265676973746572656400000000000000000000000000000000000081525081526020016040518060400160405280600781526020017f4155544f2d494400000000000000000000000000000000000000000000000000815250815250600a60008373ffffffffffffffffffffffffffffffffffffffff1673ffffffffffffffffffffffffffffffffffffffff168152602001908152602001600020600082015181600001908161424a9190615509565b5060208201518160010190816142609190615509565b509050505b5b50565b600080600680549050116142b2576040517f08c379a00000000000000000000000000000000000000000000000000000000081526004016142a990615947565b60405180910390fd5b6000600680805490506000600481819054906101000a900463ffffffff16809291906142dd906157f7565b91906101000a81548163ffffffff021916908363ffffffff16021790555063ffffffff1661430b9190615996565b8154811061431c5761431b6150a6565b5b9060005260206000200160009054906101000a900473ffffffffffffffffffffffffffffffffffffffff1690508091505090565b6000604051905090565b600080fd5b600080fd5b600073ffffffffffffffffffffffffffffffffffffffff82169050919050565b600061438f82614364565b9050919050565b61439f81614384565b81146143aa57600080fd5b50565b6000813590506143bc81614396565b92915050565b6000602082840312156143d8576143d761435a565b5b60006143e6848285016143ad565b91505092915050565b600081519050919050565b600082825260208201905092915050565b60005b8381101561442957808201518184015260208101905061440e565b60008484015250505050565b6000601f19601f8301169050919050565b6000614451826143ef565b61445b81856143fa565b935061446b81856020860161440b565b61447481614435565b840191505092915050565b600060408201905081810360008301526144998185614446565b905081810360208301526144ad8184614446565b90509392505050565b600081519050919050565b600082825260208201905092915050565b6000819050602082019050919050565b600063ffffffff82169050919050565b6144fb816144e2565b82525050565b600061450d83836144f2565b60208301905092915050565b6000602082019050919050565b6000614531826144b6565b61453b81856144c1565b9350614546836144d2565b8060005b8381101561457757815161455e8882614501565b975061456983614519565b92505060018101905061454a565b5085935050505092915050565b6000602082019050818103600083015261459e8184614526565b905092915050565b6145af816144e2565b81146145ba57600080fd5b50565b6000813590506145cc816145a6565b92915050565b6000602082840312156145e8576145e761435a565b5b60006145f6848285016145bd565b91505092915050565b61460881614384565b82525050565b600060408201905081810360008301526146288185614446565b905061463760208301846145ff565b9392505050565b600080fd5b600080fd5b7f4e487b7100000000000000000000000000000000000000000000000000000000600052604160045260246000fd5b61468082614435565b810181811067ffffffffffffffff8211171561469f5761469e614648565b5b80604052505050565b60006146b2614350565b90506146be8282614677565b919050565b600067ffffffffffffffff8211156146de576146dd614648565b5b6146e782614435565b9050602081019050919050565b82818337600083830152505050565b6000614716614711846146c3565b6146a8565b90508281526020810184848401111561473257614731614643565b5b61473d8482856146f4565b509392505050565b600082601f83011261475a5761475961463e565b5b813561476a848260208601614703565b91505092915050565b60008060006060848603121561478c5761478b61435a565b5b600061479a868287016143ad565b935050602084013567ffffffffffffffff8111156147bb576147ba61435f565b5b6147c786828701614745565b925050604084013567ffffffffffffffff8111156147e8576147e761435f565b5b6147f486828701614745565b9150509250925092565b614807816144e2565b82525050565b600060808201905061482260008301876147fe565b81810360208301526148348186614446565b905061484360408301856145ff565b61485060608301846145ff565b95945050505050565b60008115159050919050565b61486e81614859565b82525050565b60006020820190506148896000830184614865565b92915050565b7f4e487b7100000000000000000000000000000000000000000000000000000000600052602160045260246000fd5b600681106148cf576148ce61488f565b5b50565b60008190506148e0826148be565b919050565b60006148f0826148d2565b9050919050565b614900816148e5565b82525050565b600060208201905061491b60008301846148f7565b92915050565b6000819050919050565b61493481614921565b811461493f57600080fd5b50565b6000813590506149518161492b565b92915050565b60006020828403121561496d5761496c61435a565b5b600061497b84828501614942565b91505092915050565b600060208201905061499960008301846145ff565b92915050565b600081519050919050565b600082825260208201905092915050565b6000819050602082019050919050565b6149d481614384565b82525050565b600381106149eb576149ea61488f565b5b50565b60008190506149fc826149da565b919050565b6000614a0c826149ee565b9050919050565b614a1c81614a01565b82525050565b608082016000820151614a3860008501826149cb565b506020820151614a4b60208501826149cb565b506040820151614a5e60408501826144f2565b506060820151614a716060850182614a13565b50505050565b6000614a838383614a22565b60808301905092915050565b6000602082019050919050565b6000614aa78261499f565b614ab181856149aa565b9350614abc836149bb565b8060005b83811015614aed578151614ad48882614a77565b9750614adf83614a8f565b925050600181019050614ac0565b5085935050505092915050565b60006020820190508181036000830152614b148184614a9c565b905092915050565b614b2581614921565b82525050565b6000602082019050614b406000830184614b1c565b92915050565b60008060408385031215614b5d57614b5c61435a565b5b6000614b6b858286016145bd565b9250506020614b7c858286016143ad565b9150509250929050565b6000602082019050614b9b60008301846147fe565b92915050565b60008060408385031215614bb857614bb761435a565b5b6000614bc6858286016145bd565b925050602083013567ffffffffffffffff811115614be757614be661435f565b5b614bf385828601614745565b9150509250929050565b60008060408385031215614c1457614c1361435a565b5b6000614c22858286016143ad565b9250506020614c3385828601614942565b9150509250929050565b614c4681614859565b8114614c5157600080fd5b50565b600081359050614c6381614c3d565b92915050565b60008060408385031215614c8057614c7f61435a565b5b6000614c8e85828601614942565b9250506020614c9f85828601614c54565b9150509250929050565b60008060408385031215614cc057614cbf61435a565b5b600083013567ffffffffffffffff811115614cde57614cdd61435f565b5b614cea85828601614745565b9250506020614cfb858286016143ad565b9150509250929050565b600081519050919050565b600082825260208201905092915050565b6000819050602082019050919050565b6000614d3d83836149cb565b60208301905092915050565b6000602082019050919050565b6000614d6182614d05565b614d6b8185614d10565b9350614d7683614d21565b8060005b83811015614da7578151614d8e8882614d31565b9750614d9983614d49565b925050600181019050614d7a565b5085935050505092915050565b60006020820190508181036000830152614dce8184614d56565b905092915050565b614ddf81614a01565b82525050565b6000608082019050614dfa60008301876145ff565b614e0760208301866145ff565b614e1460408301856147fe565b614e216060830184614dd6565b95945050505050565b7f4e487b7100000000000000000000000000000000000000000000000000000000600052602260045260246000fd5b60006002820490506001821680614e7157607f821691505b602082108103614e8457614e83614e2a565b5b50919050565b7f556e617574686f72697a65640000000000000000000000000000000000000000600082015250565b6000614ec0600c836143fa565b9150614ecb82614e8a565b602082019050919050565b60006020820190508181036000830152614eef81614eb3565b9050919050565b7f416c7265616479206120726563657074696f6e69737400000000000000000000600082015250565b6000614f2c6016836143fa565b9150614f3782614ef6565b602082019050919050565b60006020820190508181036000830152614f5b81614f1f565b9050919050565b7f416c7265616479206120646f63746f7200000000000000000000000000000000600082015250565b6000614f986010836143fa565b9150614fa382614f62565b602082019050919050565b60006020820190508181036000830152614fc781614f8b565b9050919050565b7f416c726561647920612070617469656e74000000000000000000000000000000600082015250565b60006150046011836143fa565b915061500f82614fce565b602082019050919050565b6000602082019050818103600083015261503381614ff7565b9050919050565b7f4f7574206f6620626f756e647300000000000000000000000000000000000000600082015250565b6000615070600d836143fa565b915061507b8261503a565b602082019050919050565b6000602082019050818103600083015261509f81615063565b9050919050565b7f4e487b7100000000000000000000000000000000000000000000000000000000600052603260045260246000fd5b7f416c726561647920616e2061646d696e00000000000000000000000000000000600082015250565b600061510b6010836143fa565b9150615116826150d5565b602082019050919050565b6000602082019050818103600083015261513a816150fe565b9050919050565b7f416c72656164792061206e757273650000000000000000000000000000000000600082015250565b6000615177600f836143fa565b915061518282615141565b602082019050919050565b600060208201905081810360008301526151a68161516a565b9050919050565b7f496e76616c6964207265636f7264000000000000000000000000000000000000600082015250565b60006151e3600e836143fa565b91506151ee826151ad565b602082019050919050565b60006020820190508181036000830152615212816151d6565b9050919050565b7f546172676574206d75737420626520646f63746f720000000000000000000000600082015250565b600061524f6015836143fa565b915061525a82615219565b602082019050919050565b6000602082019050818103600083015261527e81615242565b9050919050565b7f4e6f7420616e2061646d696e0000000000000000000000000000000000000000600082015250565b60006152bb600c836143fa565b91506152c682615285565b602082019050919050565b600060208201905081810360008301526152ea816152ae565b9050919050565b7f4e6f2065646974207065726d697373696f6e0000000000000000000000000000600082015250565b60006153276012836143fa565b9150615332826152f1565b602082019050919050565b600060208201905081810360008301526153568161531a565b9050919050565b60008190508160005260206000209050919050565b60006020601f8301049050919050565b600082821b905092915050565b6000600883026153bf7fffffffffffffffffffffffffffffffffffffffffffffffffffffffffffffffff82615382565b6153c98683615382565b95508019841693508086168417925050509392505050565b6000819050919050565b60006154066154016153fc84614921565b6153e1565b614921565b9050919050565b6000819050919050565b615420836153eb565b61543461542c8261540d565b84845461538f565b825550505050565b600090565b61544961543c565b615454818484615417565b505050565b5b818110156154785761546d600082615441565b60018101905061545a565b5050565b601f8211156154bd5761548e8161535d565b61549784615372565b810160208510156154a6578190505b6154ba6154b285615372565b830182615459565b50505b505050565b600082821c905092915050565b60006154e0600019846008026154c2565b1980831691505092915050565b60006154f983836154cf565b9150826002028217905092915050565b615512826143ef565b67ffffffffffffffff81111561552b5761552a614648565b5b6155358254614e59565b61554082828561547c565b600060209050601f8311600181146155735760008415615561578287015190505b61556b85826154ed565b8655506155d3565b601f1984166155818661535d565b60005b828110156155a957848901518255600182019150602085019450602081019050615584565b868310156155c657848901516155c2601f8916826154cf565b8355505b6001600288020188555050505b505050505050565b600060208201905081810360008301526155f58184614446565b905092915050565b7f4e6f742061206e75727365000000000000000000000000000000000000000000600082015250565b6000615633600b836143fa565b915061563e826155fd565b602082019050919050565b6000602082019050818103600083015261566281615626565b9050919050565b7f496e76616c696420696e64657800000000000000000000000000000000000000600082015250565b600061569f600d836143fa565b91506156aa82615669565b602082019050919050565b600060208201905081810360008301526156ce81615692565b9050919050565b7f416c72656164792068616e646c65640000000000000000000000000000000000600082015250565b600061570b600f836143fa565b9150615716826156d5565b602082019050919050565b6000602082019050818103600083015261573a816156fe565b9050919050565b60006020820190506157566000830184614dd6565b92915050565b7f4e6f74206120646f63746f720000000000000000000000000000000000000000600082015250565b6000615792600c836143fa565b915061579d8261575c565b602082019050919050565b600060208201905081810360008301526157c181615785565b9050919050565b7f4e487b7100000000000000000000000000000000000000000000000000000000600052601160045260246000fd5b6000615802826144e2565b915063ffffffff8203615818576158176157c8565b5b600182019050919050565b7f4e6f7420612070617469656e7400000000000000000000000000000000000000600082015250565b6000615859600d836143fa565b915061586482615823565b602082019050919050565b600060208201905081810360008301526158888161584c565b9050919050565b7f4e6f74206120726563657074696f6e6973740000000000000000000000000000600082015250565b60006158c56012836143fa565b91506158d08261588f565b602082019050919050565b600060208201905081810360008301526158f4816158b8565b9050919050565b7f4e6f20646f63746f727300000000000000000000000000000000000000000000600082015250565b6000615931600a836143fa565b915061593c826158fb565b602082019050919050565b6000602082019050818103600083015261596081615924565b9050919050565b7f4e487b7100000000000000000000000000000000000000000000000000000000600052601260045260246000fd5b60006159a182614921565b91506159ac83614921565b9250826159bc576159bb615967565b5b82820690509291505056fea26469706673582212200b095814464fcfdd105ff8ea3f24730e623b4723c5450126f74d47dc9605694664736f6c63430008140033",
  "linkReferences": {},
  "deployedLinkReferences": {}
}