{
  "_format": "hh-sol-artifact-1",
  "contractName": "HospitalRecords",
  "sourceName": "contracts/HospitalRecords.sol",
  "abi": [
    {
      "inputs": [],
      "stateMutability": "nonpayable",
      "type": "constructor"
    },
    {
      "anonymous": false,
      "inputs": [
        {
          "indexed": true,
          "internalType": "uint32",
          "name": "id",
          "type": "uint32"
        },
        {
          "indexed": false,
          "internalType": "string",
          "name": "prescription",
          "type": "string"
        }
      ],
      "name": "PrescriptionUpdated",
      "type": "event"
    },
    {
      "anonymous": false,
      "inputs": [
        {
          "indexed": true,
          "internalType": "uint32",
          "name": "id",
          "type": "uint32"
        },
        {
          "indexed": true,
          "internalType": "address",
          "name": "doctor",
          "type": "address"
        },
        {
          "indexed": true,
          "internalType": "address",
          "name": "patient",
          "type": "address"
        }
      ],
      "name": "RecordAdded",
      "type": "event"
    },
    {
      "anonymous": false,
      "inputs": [
        {
          "indexed": true,
          "internalType": "uint32",
          "name": "id",
          "type": "uint32"
        },
        {
          "indexed": false,
          "internalType": "string",
          "name": "newHash",
          "type": "string"
        }
      ],
      "name": "RecordEdited",
      "type": "event"
    },
    {
      "anonymous": false,
      "inputs": [
        {
          "indexed": true,
          "internalType": "address",
          "name": "patient",
          "type": "address"
        },
        {
          "indexed": true,
          "internalType": "address",
          "name": "fromDoctor",
          "type": "address"
        },
        {
          "indexed": true,
          "internalType": "address",
          "name": "toDoctor",
          "type": "address"
        },
        {
          "indexed": false,
          "internalType": "uint32",
          "name": "recordId",
          "type": "uint32"
        }
      ],
      "name": "ReferralMade",
      "type": "event"
    },
    {
      "anonymous": false,
      "inputs": [
        {
          "indexed": true,
          "internalType": "address",
          "name": "patient",
          "type": "address"
        },
        {
          "indexed": true,
          "internalType": "uint256",
          "name": "referralIndex",
          "type": "uint256"
        },
        {
          "indexed": false,
          "internalType": "enum HospitalRecords.ReferralStatus",
          "name": "status",
          "type": "uint8"
        }
      ],
      "name": "ReferralResponded",
      "type": "event"
    },
    {
      "anonymous": false,
      "inputs": [
        {
          "indexed": true,
          "internalType": "address",
          "name": "user",
          "type": "address"
        },
        {
          "indexed": false,
          "internalType": "enum HospitalRecords.Role",
          "name": "role",
          "type": "uint8"
        }
      ],
      "name": "RoleAssigned",
      "type": "event"
    },
    {
      "anonymous": false,
      "inputs": [
        {
          "indexed": true,
          "internalType": "uint32",
          "name": "id",
          "type": "uint32"
        },
        {
          "indexed": false,
          "internalType": "string",
          "name": "vitals",
          "type": "string"
        }
      ],
      "name": "VitalsUpdated",
      "type": "event"
    },
    {
      "inputs": [
        {
          "internalType": "address",
          "name": "user",
          "type": "address"
        },
        {
          "internalType": "string",
          "name": "name",
          "type": "string"
        },
        {
          "internalType": "string",
          "name": "id",
          "type": "string"
        }
      ],
      "name": "addAdmin",
      "outputs": [],
      "stateMutability": "nonpayable",
      "type": "function"
    },
    {
      "inputs": [
        {
          "internalType": "address",
          "name": "user",
          "type": "address"
        },
        {
          "internalType": "string",
          "name": "name",
          "type": "string"
        },
        {
          "internalType": "string",
          "name": "id",
          "type": "string"
        }
      ],
      "name": "addDoctor",
      "outputs": [],
      "stateMutability": "nonpayable",
      "type": "function"
    },
    {
      "inputs": [
        {
          "internalType": "address",
          "name": "user",
          "type": "address"
        },
        {
          "internalType": "string",
          "name": "name",
          "type": "string"
        },
        {
          "internalType": "string",
          "name": "id",
          "type": "string"
        }
      ],
      "name": "addNurse",
      "outputs": [],
      "stateMutability": "nonpayable",
      "type": "function"
    },
    {
      "inputs": [
        {
          "internalType": "address",
          "name": "user",
          "type": "address"
        },
        {
          "internalType": "string",
          "name": "name",
          "type": "string"
        },
        {
          "internalType": "string",
          "name": "id",
          "type": "string"
        }
      ],
      "name": "addPatient",
      "outputs": [],
      "stateMutability": "nonpayable",
      "type": "function"
    },
    {
      "inputs": [
        {
          "internalType": "address",
          "name": "patient",
          "type": "address"
        },
        {
          "internalType": "string",
          "name": "name",
          "type": "string"
        },
        {
          "internalType": "string",
          "name": "id",
          "type": "string"
        },
        {
          "internalType": "address",
          "name": "doctor",
          "type": "address"
        }
      ],
      "name": "addPatientWithDoctor",
      "outputs": [],
      "stateMutability": "nonpayable",
      "type": "function"
    },
    {
      "inputs": [
        {
          "internalType": "address",
          "name": "user",
          "type": "address"
        },
        {
          "internalType": "string",
          "name": "name",
          "type": "string"
        },
        {
          "internalType": "string",
          "name": "id",
          "type": "string"
        }
      ],
      "name": "addReceptionist",
      "outputs": [],
      "stateMutability": "nonpayable",
      "type": "function"
    },
    {
      "inputs": [
        {
          "internalType": "string",
          "name": "ipfsHash",
          "type": "string"
        },
        {
          "internalType": "address",
          "name": "preferredDoctor",
          "type": "address"
        }
      ],
      "name": "addRecordWithPreference",
      "outputs": [],
      "stateMutability": "nonpayable",
      "type": "function"
    },
    {
      "inputs": [
        {
          "internalType": "address",
          "name": "",
          "type": "address"
        }
      ],
      "name": "adminDetails",
      "outputs": [
        {
          "internalType": "string",
          "name": "name",
          "type": "string"
        },
        {
          "internalType": "string",
          "name": "id",
          "type": "string"
        }
      ],
      "stateMutability": "view",
      "type": "function"
    },
    {
      "inputs": [
        {
          "internalType": "address",
          "name": "",
          "type": "address"
        }
      ],
      "name": "assignedDoctor",
      "outputs": [
        {
          "internalType": "address",
          "name": "",
          "type": "address"
        }
      ],
      "stateMutability": "view",
      "type": "function"
    },
    {
      "inputs": [
        {
          "internalType": "address",
          "name": "",
          "type": "address"
        }
      ],
      "name": "doctorDetails",
      "outputs": [
        {
          "internalType": "string",
          "name": "name",
          "type": "string"
        },
        {
          "internalType": "string",
          "name": "id",
          "type": "string"
        }
      ],
      "stateMutability": "view",
      "type": "function"
    },
    {
      "inputs": [
        {
          "internalType": "uint32",
          "name": "id",
          "type": "uint32"
        },
        {
          "internalType": "string",
          "name": "newIpfsHash",
          "type": "string"
        }
      ],
      "name": "editRecord",
      "outputs": [],
      "stateMutability": "nonpayable",
      "type": "function"
    },
    {
      "inputs": [
        {
          "internalType": "address",
          "name": "user",
          "type": "address"
        }
      ],
      "name": "getAdminDetails",
      "outputs": [
        {
          "internalType": "string",
          "name": "",
          "type": "string"
        },
        {
          "internalType": "string",
          "name": "",
          "type": "string"
        }
      ],
      "stateMutability": "view",
      "type": "function"
    },
    {
      "inputs": [],
      "name": "getAllUsers",
      "outputs": [
        {
          "internalType": "address[]",
          "name": "",
          "type": "address[]"
        }
      ],
      "stateMutability": "view",
      "type": "function"
    },
    {
      "inputs": [
        {
          "internalType": "uint256",
          "name": "index",
          "type": "uint256"
        }
      ],
      "name": "getDoctorByIndex",
      "outputs": [
        {
          "internalType": "address",
          "name": "",
          "type": "address"
        }
      ],
      "stateMutability": "view",
      "type": "function"
    },
    {
      "inputs": [],
      "name": "getDoctorCount",
      "outputs": [
        {
          "internalType": "uint256",
          "name": "",
          "type": "uint256"
        }
      ],
      "stateMutability": "view",
      "type": "function"
    },
    {
      "inputs": [
        {
          "internalType": "address",
          "name": "user",
          "type": "address"
        }
      ],
      "name": "getDoctorDetails",
      "outputs": [
        {
          "internalType": "string",
          "name": "",
          "type": "string"
        },
        {
          "internalType": "string",
          "name": "",
          "type": "string"
        }
      ],
      "stateMutability": "view",
      "type": "function"
    },
    {
      "inputs": [],
      "name": "getMyReferrals",
      "outputs": [
        {
          "components": [
            {
              "internalType": "address",
              "name": "fromDoctor",
              "type": "address"
            },
            {
              "internalType": "address",
              "name": "toDoctor",
              "type": "address"
            },
            {
              "internalType": "uint32",
              "name": "recordId",
              "type": "uint32"
            },
            {
              "internalType": "enum HospitalRecords.ReferralStatus",
              "name": "status",
              "type": "uint8"
            }
          ],
          "internalType": "struct HospitalRecords.Referral[]",
          "name": "",
          "type": "tuple[]"
        }
      ],
      "stateMutability": "view",
      "type": "function"
    },
    {
      "inputs": [
        {
          "internalType": "address",
          "name": "user",
          "type": "address"
        }
      ],
      "name": "getNurseDetails",
      "outputs": [
        {
          "internalType": "string",
          "name": "",
          "type": "string"
        },
        {
          "internalType": "string",
          "name": "",
          "type": "string"
        }
      ],
      "stateMutability": "view",
      "type": "function"
    },
    {
      "inputs": [
        {
          "internalType": "address",
          "name": "user",
          "type": "address"
        }
      ],
      "name": "getPatientDetails",
      "outputs": [
        {
          "internalType": "string",
          "name": "",
          "type": "string"
        },
        {
          "internalType": "string",
          "name": "",
          "type": "string"
        }
      ],
      "stateMutability": "view",
      "type": "function"
    },
    {
      "inputs": [
        {
          "internalType": "address",
          "name": "patient",
          "type": "address"
        }
      ],
      "name": "getPatientRecords",
      "outputs": [
        {
          "internalType": "uint32[]",
          "name": "",
          "type": "uint32[]"
        }
      ],
      "stateMutability": "view",
      "type": "function"
    },
    {
      "inputs": [
        {
          "internalType": "address",
          "name": "user",
          "type": "address"
        }
      ],
      "name": "getReceptionistDetails",
      "outputs": [
        {
          "internalType": "string",
          "name": "",
          "type": "string"
        },
        {
          "internalType": "string",
          "name": "",
          "type": "string"
        }
      ],
      "stateMutability": "view",
      "type": "function"
    },
    {
      "inputs": [
        {
          "internalType": "address",
          "name": "user",
          "type": "address"
        }
      ],
      "name": "getRole",
      "outputs": [
        {
          "internalType": "enum HospitalRecords.Role",
          "name": "",
          "type": "uint8"
        }
      ],
      "stateMutability": "view",
      "type": "function"
    },
    {
      "inputs": [
        {
          "internalType": "address",
          "name": "",
          "type": "address"
        }
      ],
      "name": "isRegisteredPatient",
      "outputs": [
        {
          "internalType": "bool",
          "name": "",
          "type": "bool"
        }
      ],
      "stateMutability": "view",
      "type": "function"
    },
    {
      "inputs": [
        {
          "internalType": "address",
          "name": "",
          "type": "address"
        }
      ],
      "name": "nurseDetails",
      "outputs": [
        {
          "internalType": "string",
          "name": "name",
          "type": "string"
        },
        {
          "internalType": "string",
          "name": "id",
          "type": "string"
        }
      ],
      "stateMutability": "view",
      "type": "function"
    },
    {
      "inputs": [
        {
          "internalType": "address",
          "name": "",
          "type": "address"
        }
      ],
      "name": "patientDetails",
      "outputs": [
        {
          "internalType": "string",
          "name": "name",
          "type": "string"
        },
        {
          "internalType": "string",
          "name": "id",
          "type": "string"
        }
      ],
      "stateMutability": "view",
      "type": "function"
    },
    {
      "inputs": [
        {
          "internalType": "address",
          "name": "",
          "type": "address"
        },
        {
          "internalType": "uint256",
          "name": "",
          "type": "uint256"
        }
      ],
      "name": "patientRecords",
      "outputs": [
        {
          "internalType": "uint32",
          "name": "",
          "type": "uint32"
        }
      ],
      "stateMutability": "view",
      "type": "function"
    },
    {
      "inputs": [
        {
          "internalType": "address",
          "name": "",
          "type": "address"
        }
      ],
      "name": "receptionistDetails",
      "outputs": [
        {
          "internalType": "string",
          "name": "name",
          "type": "string"
        },
        {
          "internalType": "string",
          "name": "id",
          "type": "string"
        }
      ],
      "stateMutability": "view",
      "type": "function"
    },
    {
      "inputs": [],
      "name": "recordCount",
      "outputs": [
        {
          "internalType": "uint32",
          "name": "",
          "type": "uint32"
        }
      ],
      "stateMutability": "view",
      "type": "function"
    },
    {
      "inputs": [
        {
          "internalType": "uint32",
          "name": "",
          "type": "uint32"
        }
      ],
      "name": "records",
      "outputs": [
        {
          "internalType": "uint32",
          "name": "id",
          "type": "uint32"
        },
        {
          "internalType": "string",
          "name": "ipfsHash",
          "type": "string"
        },
        {
          "internalType": "address",
          "name": "patient",
          "type": "address"
        },
        {
          "internalType": "address",
          "name": "assignedDoctor",
          "type": "address"
        },
        {
          "internalType": "string",
          "name": "vitals",
          "type": "string"
        },
        {
          "internalType": "string",
          "name": "prescription",
          "type": "string"
        },
        {
          "internalType": "string",
          "name": "notes",
          "type": "string"
        },
        {
          "internalType": "uint256",
          "name": "timestamp",
          "type": "uint256"
        }
      ],
      "stateMutability": "view",
      "type": "function"
    },
    {
      "inputs": [
        {
          "internalType": "uint32",
          "name": "recordId",
          "type": "uint32"
        },
        {
          "internalType": "address",
          "name": "toDoctor",
          "type": "address"
        }
      ],
      "name": "referToAnotherDoctor",
      "outputs": [],
      "stateMutability": "nonpayable",
      "type": "function"
    },
    {
      "inputs": [
        {
          "internalType": "address",
          "name": "",
          "type": "address"
        },
        {
          "internalType": "uint256",
          "name": "",
          "type": "uint256"
        }
      ],
      "name": "referrals",
      "outputs": [
        {
          "internalType": "address",
          "name": "fromDoctor",
          "type": "address"
        },
        {
          "internalType": "address",
          "name": "toDoctor",
          "type": "address"
        },
        {
          "internalType": "uint32",
          "name": "recordId",
          "type": "uint32"
        },
        {
          "internalType": "enum HospitalRecords.ReferralStatus",
          "name": "status",
          "type": "uint8"
        }
      ],
      "stateMutability": "view",
      "type": "function"
    },
    {
      "inputs": [
        {
          "internalType": "uint256",
          "name": "index",
          "type": "uint256"
        },
        {
          "internalType": "bool",
          "name": "accept",
          "type": "bool"
        }
      ],
      "name": "respondToReferral",
      "outputs": [],
      "stateMutability": "nonpayable",
      "type": "function"
    },
    {
      "inputs": [
        {
          "internalType": "address",
          "name": "",
          "type": "address"
        }
      ],
      "name": "roles",
      "outputs": [
        {
          "internalType": "enum HospitalRecords.Role",
          "name": "",
          "type": "uint8"
        }
      ],
      "stateMutability": "view",
      "type": "function"
    },
    {
      "inputs": [
        {
          "internalType": "uint32",
          "name": "id",
          "type": "uint32"
        },
        {
          "internalType": "string",
          "name": "prescription",
          "type": "string"
        },
        {
          "internalType": "string",
          "name": "notes",
          "type": "string"
        }
      ],
      "name": "updatePrescription",
      "outputs": [],
      "stateMutability": "nonpayable",
      "type": "function"
    },
    {
      "inputs": [
        {
          "internalType": "uint32",
          "name": "id",
          "type": "uint32"
        },
        {
          "internalType": "string",
          "name": "vitals",
          "type": "string"
        }
      ],
      "name": "updateVitals",
      "outputs": [],
      "stateMutability": "nonpayable",
      "type": "function"
    },
    {
      "inputs": [
        {
          "internalType": "uint32",
          "name": "id",
          "type": "uint32"
        }
      ],
      "name": "viewRecord",
      "outputs": [
        {
          "components": [
            {
              "internalType": "uint32",
              "name": "id",
              "type": "uint32"
            },
            {
              "internalType": "string",
              "name": "ipfsHash",
              "type": "string"
            },
            {
              "internalType": "address",
              "name": "patient",
              "type": "address"
            },
            {
              "internalType": "address",
              "name": "assignedDoctor",
              "type": "address"
            },
            {
              "internalType": "string",
              "name": "vitals",
              "type": "string"
            },
            {
              "internalType": "string",
              "name": "prescription",
              "type": "string"
            },
            {
              "internalType": "string",
              "name": "notes",
              "type": "string"
            },
            {
              "internalType": "uint256",
              "name": "timestamp",
              "type": "uint256"
            }
          ],
          "internalType": "struct HospitalRecords.Record",
          "name": "",
          "type": "tuple"
        }
      ],
      "stateMutability": "view",
      "type": "function"
    }
  ],
  "bytecode": "0x60806040523480156200001157600080fd5b50336000818152600160209081526040808320805460ff191660041790558051608081018252600d8183019081526c2232b330bab63a1020b236b4b760991b6060830152815281518083018352600981526861646d696e2d30303160b81b8185015281840152938352600c909152902081518190620000919082620001ef565b5060208201516001820190620000a89082620001ef565b505033600081815260086020526040808220805460ff191660019081179091556007805491820181559092527fa66cc928b5edb82af9bd49922954155ab7b0942694bea4ce44661d9a8736c68890910180546001600160a01b03191683179055519091507f4ac36fa53f167ceb85964be512e01de2a3b8bdb9862f917da079deeeff689b38906200013c90600490620002bb565b60405180910390a2620002e4565b634e487b7160e01b600052604160045260246000fd5b600181811c908216806200017557607f821691505b6020821081036200019657634e487b7160e01b600052602260045260246000fd5b50919050565b601f821115620001ea57600081815260208120601f850160051c81016020861015620001c55750805b601f850160051c820191505b81811015620001e657828155600101620001d1565b5050505b505050565b81516001600160401b038111156200020b576200020b6200014a565b62000223816200021c845462000160565b846200019c565b602080601f8311600181146200025b5760008415620002425750858301515b600019600386901b1c1916600185901b178555620001e6565b600085815260208120601f198616915b828110156200028c578886015182559484019460019091019084016200026b565b5085821015620002ab5787850151600019600388901b60f8161c191681555b5050505050600190811b01905550565b6020810160068310620002de57634e487b7160e01b600052602160045260246000fd5b91905290565b612fff80620002f46000396000f3fe608060405234801561001057600080fd5b50600436106101dc5760003560e01c8063853ac8dd11610105578063b81b70e91161009d578063b81b70e9146104bf578063bab90dbd146104d2578063cc49a087146104e5578063d6eb4d50146104f8578063dc0830a01461050b578063e2842d791461051e578063e697b5d814610533578063efe2ccc114610556578063f695a44d1461056957600080fd5b8063853ac8dd146103f257806385ab778c1461040557806389c5c43f14610418578063900407bc1461042b57806390f65ec01461045057806394f0df61146104635780639937464214610476578063a05c086a14610499578063a4fd4be3146104ac57600080fd5b80633bd29d69116101785780633bd29d69146102bf5780633c4f7a9d146102e657806344276733146103195780634f5f9a18146103525780635a357c19146103655780635b2ac852146103905780635babf5ef146103b957806365649166146103cc57806379111c1c146103e157600080fd5b806310c5f025146101e157806318bd48471461020b5780631afecb2d1461022b578063288df45c1461024b5780632ed226ad146102605780632f2d4786146102735780633239515e1461028657806334b789981461029957806337b16b50146102ac575b600080fd5b6101f46101ef36600461273c565b61057c565b6040516102029291906127a4565b60405180910390f35b61021e61021936600461273c565b6106a8565b60405161020291906127d2565b61023e610239366004612830565b610740565b604051610202919061284b565b61025e6102593660046129c2565b610a98565b005b6101f461026e36600461273c565b610b66565b6101f461028136600461273c565b610b81565b61025e610294366004612a35565b610b9c565b61025e6102a7366004612a35565b610c7b565b61025e6102ba366004612a35565b610d4e565b6102d26102cd366004612830565b610e22565b604051610202989796959493929190612a53565b6103096102f436600461273c565b60056020526000908152604090205460ff1681565b6040519015158152602001610202565b61034561032736600461273c565b6001600160a01b031660009081526001602052604090205460ff1690565b6040516102029190612af2565b6101f461036036600461273c565b61109c565b610378610373366004612b0c565b6110b7565b6040516001600160a01b039091168152602001610202565b61037861039e36600461273c565b600e602052600090815260409020546001600160a01b031681565b61025e6103c7366004612a35565b611129565b6103d46111fc565b6040516102029190612b39565b600654604051908152602001610202565b61025e610400366004612a35565b611313565b61025e610413366004612bbb565b6113e5565b6101f461042636600461273c565b61162a565b60005461043b9063ffffffff1681565b60405163ffffffff9091168152602001610202565b61025e61045e366004612bee565b6117f2565b61043b610471366004612c3b565b61191b565b61034561048436600461273c565b60016020526000908152604090205460ff1681565b61025e6104a7366004612bee565b611964565b6101f46104ba36600461273c565b611a01565b61025e6104cd366004612c65565b611a9e565b6101f46104e036600461273c565b611c99565b61025e6104f3366004612c9a565b611d37565b6101f461050636600461273c565b612028565b61025e610519366004612cde565b612043565b6105266121b5565b6040516102029190612d62565b610546610541366004612c3b565b612217565b6040516102029493929190612da3565b6101f461056436600461273c565b612278565b6101f461057736600461273c565b612317565b600a6020526000908152604090208054819061059790612dd4565b80601f01602080910402602001604051908101604052809291908181526020018280546105c390612dd4565b80156106105780601f106105e557610100808354040283529160200191610610565b820191906000526020600020905b8154815290600101906020018083116105f357829003601f168201915b50505050509080600101805461062590612dd4565b80601f016020809104026020016040519081016040528092919081815260200182805461065190612dd4565b801561069e5780601f106106735761010080835404028352916020019161069e565b820191906000526020600020905b81548152906001019060200180831161068157829003601f168201915b5050505050905082565b6001600160a01b03811660009081526003602090815260409182902080548351818402810184019094528084526060939283018282801561073457602002820191906000526020600020906000905b82829054906101000a900463ffffffff1663ffffffff16815260200190600401906020826003010492830192600103820291508084116106f75790505b50505050509050919050565b6107a0604051806101000160405280600063ffffffff1681526020016060815260200160006001600160a01b0316815260200160006001600160a01b03168152602001606081526020016060815260200160608152602001600081525090565b3360009081526001602052604081205460ff1660058111156107c4576107c4612adc565b036107ea5760405162461bcd60e51b81526004016107e190612e0e565b60405180910390fd5b63ffffffff80831660009081526002602090815260409182902082516101008101909352805490931682526001830180549293929184019161082b90612dd4565b80601f016020809104026020016040519081016040528092919081815260200182805461085790612dd4565b80156108a45780601f10610879576101008083540402835291602001916108a4565b820191906000526020600020905b81548152906001019060200180831161088757829003601f168201915b505050918352505060028201546001600160a01b03908116602083015260038301541660408201526004820180546060909201916108e190612dd4565b80601f016020809104026020016040519081016040528092919081815260200182805461090d90612dd4565b801561095a5780601f1061092f5761010080835404028352916020019161095a565b820191906000526020600020905b81548152906001019060200180831161093d57829003601f168201915b5050505050815260200160058201805461097390612dd4565b80601f016020809104026020016040519081016040528092919081815260200182805461099f90612dd4565b80156109ec5780601f106109c1576101008083540402835291602001916109ec565b820191906000526020600020905b8154815290600101906020018083116109cf57829003601f168201915b50505050508152602001600682018054610a0590612dd4565b80601f0160208091040260200160405190810160405280929190818152602001828054610a3190612dd4565b8015610a7e5780601f10610a5357610100808354040283529160200191610a7e565b820191906000526020600020905b815481529060010190602001808311610a6157829003601f168201915b505050505081526020016007820154815250509050919050565b6003803360009081526001602052604090205460ff166005811115610abf57610abf612adc565b14610adc5760405162461bcd60e51b81526004016107e190612e0e565b63ffffffff84166000908152600260205260409020600501610afe8482612e7a565b5063ffffffff84166000908152600260205260409020600601610b218382612e7a565b508363ffffffff167f28b98bf9f7d2d55b8de9fd1e237c48e181b2ad9f2954b9446c7f57f22979019084604051610b589190612f39565b60405180910390a250505050565b60096020526000908152604090208054819061059790612dd4565b600c6020526000908152604090208054819061059790612dd4565b6004803360009081526001602052604090205460ff166005811115610bc357610bc3612adc565b14610be05760405162461bcd60e51b81526004016107e190612e0e565b60056001600160a01b03851660009081526001602052604090205460ff166005811115610c0f57610c0f612adc565b03610c555760405162461bcd60e51b8152602060048201526016602482015275105b1c9958591e4818481c9958d95c1d1a5bdb9a5cdd60521b60448201526064016107e1565b610c758460056040518060400160405280878152602001868152506123bb565b50505050565b6004803360009081526001602052604090205460ff166005811115610ca257610ca2612adc565b14610cbf5760405162461bcd60e51b81526004016107e190612e0e565b60036001600160a01b03851660009081526001602052604090205460ff166005811115610cee57610cee612adc565b03610d2e5760405162461bcd60e51b815260206004820152601060248201526f20b63932b0b23c9030903237b1ba37b960811b60448201526064016107e1565b610c758460036040518060400160405280878152602001868152506123bb565b6005803360009081526001602052604090205460ff166005811115610d7557610d75612adc565b14610d925760405162461bcd60e51b81526004016107e190612e0e565b60016001600160a01b03851660009081526001602052604090205460ff166005811115610dc157610dc1612adc565b03610e025760405162461bcd60e51b8152602060048201526011602482015270105b1c9958591e4818481c185d1a595b9d607a1b60448201526064016107e1565b610c758460016040518060400160405280878152602001868152506123bb565b6002602052600090815260409020805460018201805463ffffffff9092169291610e4b90612dd4565b80601f0160208091040260200160405190810160405280929190818152602001828054610e7790612dd4565b8015610ec45780601f10610e9957610100808354040283529160200191610ec4565b820191906000526020600020905b815481529060010190602001808311610ea757829003601f168201915b5050506002840154600385015460048601805495966001600160a01b0393841696929093169450919250610ef790612dd4565b80601f0160208091040260200160405190810160405280929190818152602001828054610f2390612dd4565b8015610f705780601f10610f4557610100808354040283529160200191610f70565b820191906000526020600020905b815481529060010190602001808311610f5357829003601f168201915b505050505090806005018054610f8590612dd4565b80601f0160208091040260200160405190810160405280929190818152602001828054610fb190612dd4565b8015610ffe5780601f10610fd357610100808354040283529160200191610ffe565b820191906000526020600020905b815481529060010190602001808311610fe157829003601f168201915b50505050509080600601805461101390612dd4565b80601f016020809104026020016040519081016040528092919081815260200182805461103f90612dd4565b801561108c5780601f106110615761010080835404028352916020019161108c565b820191906000526020600020905b81548152906001019060200180831161106f57829003601f168201915b5050505050908060070154905088565b600d6020526000908152604090208054819061059790612dd4565b60065460009082106110fb5760405162461bcd60e51b815260206004820152600d60248201526c4f7574206f6620626f756e647360981b60448201526064016107e1565b6006828154811061110e5761110e612f4c565b6000918252602090912001546001600160a01b031692915050565b6004803360009081526001602052604090205460ff16600581111561115057611150612adc565b1461116d5760405162461bcd60e51b81526004016107e190612e0e565b60046001600160a01b03851660009081526001602052604090205460ff16600581111561119c5761119c612adc565b036111dc5760405162461bcd60e51b815260206004820152601060248201526f20b63932b0b23c9030b71030b236b4b760811b60448201526064016107e1565b610c758460046040518060400160405280878152602001868152506123bb565b60606001803360009081526001602052604090205460ff16600581111561122557611225612adc565b146112425760405162461bcd60e51b81526004016107e190612e0e565b33600090815260046020908152604080832080548251818502810185019093528083529193909284015b8282101561130957600084815260209081902060408051608081018252600286810290930180546001600160a01b039081168352600182015490811695830195909552600160a01b850463ffffffff16928201929092529290916060840191600160c01b900460ff16908111156112e5576112e5612adc565b60028111156112f6576112f6612adc565b815250508152602001906001019061126c565b5050505091505090565b6004803360009081526001602052604090205460ff16600581111561133a5761133a612adc565b146113575760405162461bcd60e51b81526004016107e190612e0e565b60026001600160a01b03851660009081526001602052604090205460ff16600581111561138657611386612adc565b036113c55760405162461bcd60e51b815260206004820152600f60248201526e416c72656164792061206e7572736560881b60448201526064016107e1565b610c758460026040518060400160405280878152602001868152506123bb565b6003803360009081526001602052604090205460ff16600581111561140c5761140c612adc565b146114295760405162461bcd60e51b81526004016107e190612e0e565b63ffffffff8316600090815260026020819052604090912001546001600160a01b03166114895760405162461bcd60e51b815260206004820152600e60248201526d125b9d985b1a59081c9958dbdc9960921b60448201526064016107e1565b60036001600160a01b03831660009081526001602052604090205460ff1660058111156114b8576114b8612adc565b146114fd5760405162461bcd60e51b81526020600482015260156024820152742a30b933b2ba1036bab9ba103132903237b1ba37b960591b60448201526064016107e1565b63ffffffff83811660008181526002602081815260408084208301546001600160a01b039081168086526004845282862083516080810185523381528b841681870190815294810198895260608101888152825460018082018555938a529690982081519688020180549685166001600160a01b0319909716969096178655935190850180549851909916600160a01b026001600160c01b03199098169216919091179590951780875593519495909491939192909160ff60c01b191690600160c01b9084908111156115d2576115d2612adc565b02179055505060405163ffffffff861681526001600160a01b0380861692503391908416907f954f56149b3fe3faace07382cb6e9c96171fd4d04f649f5c2b3d2b05767f44369060200160405180910390a450505050565b60608060046001600160a01b03841660009081526001602052604090205460ff16600581111561165c5761165c612adc565b146116985760405162461bcd60e51b815260206004820152600c60248201526b2737ba1030b71030b236b4b760a11b60448201526064016107e1565b6001600160a01b0383166000908152600c602052604080822081518083019092528054829082906116c890612dd4565b80601f01602080910402602001604051908101604052809291908181526020018280546116f490612dd4565b80156117415780601f1061171657610100808354040283529160200191611741565b820191906000526020600020905b81548152906001019060200180831161172457829003601f168201915b5050505050815260200160018201805461175a90612dd4565b80601f016020809104026020016040519081016040528092919081815260200182805461178690612dd4565b80156117d35780601f106117a8576101008083540402835291602001916117d3565b820191906000526020600020905b8154815290600101906020018083116117b657829003601f168201915b5050505050815250509050806000015181602001519250925050915091565b8160033360009081526001602052604090205460ff16600581111561181957611819612adc565b1480611874575060023360009081526001602052604090205460ff16600581111561184657611846612adc565b148015611874575063ffffffff8116600090815260026020819052604090912001546001600160a01b031633145b6118b55760405162461bcd60e51b815260206004820152601260248201527127379032b234ba103832b936b4b9b9b4b7b760711b60448201526064016107e1565b63ffffffff831660009081526002602052604090206001016118d78382612e7a565b508263ffffffff167f443467e367e7f480b51b97f7fcc3657cf13ad722268cfe3880332489751e7e9a8360405161190e9190612f39565b60405180910390a2505050565b6003602052816000526040600020818154811061193757600080fd5b9060005260206000209060089182820401919006600402915091509054906101000a900463ffffffff1681565b6002803360009081526001602052604090205460ff16600581111561198b5761198b612adc565b146119a85760405162461bcd60e51b81526004016107e190612e0e565b63ffffffff831660009081526002602052604090206004016119ca8382612e7a565b508263ffffffff167f84444cfa2ff32fe5802d29b32a9c0e293da60f31d62bd813c417224f0ee00ed78360405161190e9190612f39565b60608060026001600160a01b03841660009081526001602052604090205460ff166005811115611a3357611a33612adc565b14611a6e5760405162461bcd60e51b815260206004820152600b60248201526a4e6f742061206e7572736560a81b60448201526064016107e1565b6001600160a01b0383166000908152600b602052604080822081518083019092528054829082906116c890612dd4565b6001803360009081526001602052604090205460ff166005811115611ac557611ac5612adc565b14611ae25760405162461bcd60e51b81526004016107e190612e0e565b336000908152600460205260409020548310611b305760405162461bcd60e51b815260206004820152600d60248201526c092dcecc2d8d2c840d2dcc8caf609b1b60448201526064016107e1565b336000908152600460205260408120805485908110611b5157611b51612f4c565b60009182526020822060029091020191506001820154600160c01b900460ff166002811115611b8257611b82612adc565b14611bc15760405162461bcd60e51b815260206004820152600f60248201526e105b1c9958591e481a185b991b1959608a1b60448201526064016107e1565b82611bcd576002611bd0565b60015b60018201805460ff60c01b1916600160c01b836002811115611bf457611bf4612adc565b02179055508215611c4057600181015463ffffffff600160a01b820416600090815260026020526040902060030180546001600160a01b0319166001600160a01b039092169190911790555b83336001600160a01b03167f3d0157b8d9080bad6084e5ddf4b3d9ed97bbead59eff457eee9f55cf4e87972f8360010160189054906101000a900460ff16604051611c8b9190612f62565b60405180910390a350505050565b60608060036001600160a01b03841660009081526001602052604090205460ff166005811115611ccb57611ccb612adc565b14611d075760405162461bcd60e51b815260206004820152600c60248201526b2737ba1030903237b1ba37b960a11b60448201526064016107e1565b6001600160a01b03831660009081526009602052604080822081518083019092528054829082906116c890612dd4565b3360009081526001602052604081205460ff166005811115611d5b57611d5b612adc565b03611dc557611dc533600160405180604001604052806040518060400160405280600e81526020016d105d5d1bd49959da5cdd195c995960921b81525081526020016040518060400160405280600781526020016610555513cb525160ca1b8152508152506123bb565b3360009081526005602052604090205460ff16611df757336000908152600560205260409020805460ff191660011790555b60006001600160a01b03821615801590611e3d575060036001600160a01b03831660009081526001602052604090205460ff166005811115611e3b57611e3b612adc565b145b611e4e57611e4961267d565b611e50565b815b600080549192509081908190611e6b9063ffffffff16612f76565b825461010092830a63ffffffff818102199092168383169182021790945560408051938401815284845260208085018a815233868401526001600160a01b038916606087015282518083018452600080825260808801919091528351808401855281815260a08801528351808401855281815260c08801524260e0880152968752600290915294208351815463ffffffff1916921691909117815592519093509091906001820190611f1d9082612e7a565b5060408201516002820180546001600160a01b039283166001600160a01b031991821617909155606084015160038401805491909316911617905560808201516004820190611f6c9082612e7a565b5060a08201516005820190611f819082612e7a565b5060c08201516006820190611f969082612e7a565b5060e0919091015160079182015533600081815260036020908152604080832080546001810182559084529183206008830401805463ffffffff808916600495909816949094026101000a87810294021916929092179091555191926001600160a01b0386169290917fb1fae238e52fde1dd2a92774df34bbc073a1692f76255f5a13064ced5a1f44c291a450505050565b600b6020526000908152604090208054819061059790612dd4565b6005803360009081526001602052604090205460ff16600581111561206a5761206a612adc565b146120875760405162461bcd60e51b81526004016107e190612e0e565b6001600160a01b03851660009081526001602052604081205460ff1660058111156120b4576120b4612adc565b146120f65760405162461bcd60e51b8152602060048201526012602482015271105b1c9958591e481c9959da5cdd195c995960721b60448201526064016107e1565b60036001600160a01b03831660009081526001602052604090205460ff16600581111561212557612125612adc565b146121635760405162461bcd60e51b815260206004820152600e60248201526d24b73b30b634b2103237b1ba37b960911b60448201526064016107e1565b6121838560016040518060400160405280888152602001878152506123bb565b506001600160a01b039384166000908152600e6020526040902080546001600160a01b03191691909416179092555050565b6060600780548060200260200160405190810160405280929190818152602001828054801561220d57602002820191906000526020600020905b81546001600160a01b031681526001909101906020018083116121ef575b5050505050905090565b6004602052816000526040600020818154811061223357600080fd5b6000918252602090912060029091020180546001909101546001600160a01b0391821693509081169150600160a01b810463ffffffff1690600160c01b900460ff1684565b60608060016001600160a01b03841660009081526001602052604090205460ff1660058111156122aa576122aa612adc565b146122e75760405162461bcd60e51b815260206004820152600d60248201526c139bdd0818481c185d1a595b9d609a1b60448201526064016107e1565b6001600160a01b0383166000908152600a602052604080822081518083019092528054829082906116c890612dd4565b60608060056001600160a01b03841660009081526001602052604090205460ff16600581111561234957612349612adc565b1461238b5760405162461bcd60e51b8152602060048201526012602482015271139bdd0818481c9958d95c1d1a5bdb9a5cdd60721b60448201526064016107e1565b6001600160a01b0383166000908152600d602052604080822081518083019092528054829082906116c890612dd4565b6001600160a01b03831660009081526001602081905260409091208054849260ff19909116908360058111156123f3576123f3612adc565b0217905550826001600160a01b03167f4ac36fa53f167ceb85964be512e01de2a3b8bdb9862f917da079deeeff689b38836040516124319190612af2565b60405180910390a26001600160a01b03831660009081526008602052604090205460ff166124bd576007805460018082019092557fa66cc928b5edb82af9bd49922954155ab7b0942694bea4ce44661d9a8736c6880180546001600160a01b0319166001600160a01b0386169081179091556000908152600860205260409020805460ff191690911790555b60038260058111156124d1576124d1612adc565b0361255b5760068054600181019091557ff652222313e28459528d920b65115c16c04f3efc82aaedc97be59f3f377c0d3f0180546001600160a01b0319166001600160a01b03851690811790915560009081526009602052604090208151829190819061253e9082612e7a565b50602082015160018201906125539082612e7a565b505050505050565b600182600581111561256f5761256f612adc565b036125b2576001600160a01b0383166000908152600560209081526040808320805460ff19166001179055600a90915290208151829190819061253e9082612e7a565b60028260058111156125c6576125c6612adc565b036125f4576001600160a01b0383166000908152600b602052604090208151829190819061253e9082612e7a565b600482600581111561260857612608612adc565b03612636576001600160a01b0383166000908152600c602052604090208151829190819061253e9082612e7a565b600582600581111561264a5761264a612adc565b03612678576001600160a01b0383166000908152600d602052604090208151829190819061253e9082612e7a565b505050565b6006546000906126bc5760405162461bcd60e51b815260206004820152600a6024820152694e6f20646f63746f727360b01b60448201526064016107e1565b600680546000805490929190640100000000900463ffffffff168360046126e283612f76565b91906101000a81548163ffffffff021916908363ffffffff16021790555063ffffffff166127109190612fa7565b8154811061110e5761110e612f4c565b80356001600160a01b038116811461273757600080fd5b919050565b60006020828403121561274e57600080fd5b61275782612720565b9392505050565b6000815180845260005b8181101561278457602081850181015186830182015201612768565b506000602082860101526020601f19601f83011685010191505092915050565b6040815260006127b7604083018561275e565b82810360208401526127c9818561275e565b95945050505050565b6020808252825182820181905260009190848201906040850190845b8181101561281057835163ffffffff16835292840192918401916001016127ee565b50909695505050505050565b803563ffffffff8116811461273757600080fd5b60006020828403121561284257600080fd5b6127578261281c565b6020815261286260208201835163ffffffff169052565b6000602083015161010080604085015261288061012085018361275e565b9150604085015161289c60608601826001600160a01b03169052565b5060608501516001600160a01b0381166080860152506080850151601f19808685030160a08701526128ce848361275e565b935060a08701519150808685030160c08701526128eb848361275e565b935060c08701519150808685030160e087015250612909838261275e565b92505060e085015181850152508091505092915050565b634e487b7160e01b600052604160045260246000fd5b600082601f83011261294757600080fd5b81356001600160401b038082111561296157612961612920565b604051601f8301601f19908116603f0116810190828211818310171561298957612989612920565b816040528381528660208588010111156129a257600080fd5b836020870160208301376000602085830101528094505050505092915050565b6000806000606084860312156129d757600080fd5b6129e08461281c565b925060208401356001600160401b03808211156129fc57600080fd5b612a0887838801612936565b93506040860135915080821115612a1e57600080fd5b50612a2b86828701612936565b9150509250925092565b600080600060608486031215612a4a57600080fd5b6129e084612720565b600061010063ffffffff8b168352806020840152612a738184018b61275e565b6001600160a01b038a811660408601528916606085015283810360808501529050612a9e818861275e565b905082810360a0840152612ab2818761275e565b905082810360c0840152612ac6818661275e565b9150508260e08301529998505050505050505050565b634e487b7160e01b600052602160045260246000fd5b6020810160068310612b0657612b06612adc565b91905290565b600060208284031215612b1e57600080fd5b5035919050565b60038110612b3557612b35612adc565b9052565b602080825282518282018190526000919060409081850190868401855b82811015612bae57815180516001600160a01b0390811686528782015116878601528581015163ffffffff168686015260609081015190612b9981870183612b25565b50506080939093019290850190600101612b56565b5091979650505050505050565b60008060408385031215612bce57600080fd5b612bd78361281c565b9150612be560208401612720565b90509250929050565b60008060408385031215612c0157600080fd5b612c0a8361281c565b915060208301356001600160401b03811115612c2557600080fd5b612c3185828601612936565b9150509250929050565b60008060408385031215612c4e57600080fd5b612c5783612720565b946020939093013593505050565b60008060408385031215612c7857600080fd5b8235915060208301358015158114612c8f57600080fd5b809150509250929050565b60008060408385031215612cad57600080fd5b82356001600160401b03811115612cc357600080fd5b612ccf85828601612936565b925050612be560208401612720565b60008060008060808587031215612cf457600080fd5b612cfd85612720565b935060208501356001600160401b0380821115612d1957600080fd5b612d2588838901612936565b94506040870135915080821115612d3b57600080fd5b50612d4887828801612936565b925050612d5760608601612720565b905092959194509250565b6020808252825182820181905260009190848201906040850190845b818110156128105783516001600160a01b031683529284019291840191600101612d7e565b6001600160a01b0385811682528416602082015263ffffffff83166040820152608081016127c96060830184612b25565b600181811c90821680612de857607f821691505b602082108103612e0857634e487b7160e01b600052602260045260246000fd5b50919050565b6020808252600c908201526b155b985d5d1a1bdc9a5e995960a21b604082015260600190565b601f82111561267857600081815260208120601f850160051c81016020861015612e5b5750805b601f850160051c820191505b8181101561255357828155600101612e67565b81516001600160401b03811115612e9357612e93612920565b612ea781612ea18454612dd4565b84612e34565b602080601f831160018114612edc5760008415612ec45750858301515b600019600386901b1c1916600185901b178555612553565b600085815260208120601f198616915b82811015612f0b57888601518255948401946001909101908401612eec565b5085821015612f295787850151600019600388901b60f8161c191681555b5050505050600190811b01905550565b602081526000612757602083018461275e565b634e487b7160e01b600052603260045260246000fd5b60208101612f708284612b25565b92915050565b600063ffffffff808316818103612f9d57634e487b7160e01b600052601160045260246000fd5b6001019392505050565b600082612fc457634e487b7160e01b600052601260045260246000fd5b50069056fea264697066735822122004cc639545eec4f41e38ed09451b4de7a68dfbeddbea975ee6fd2f7dc13791d564736f6c63430008140033",
  "linkReferences": {},
  "deployedLinkReferences": {}
}